{
  "contractName": "ERC721",
  "abi": [
    {
      "anonymous": false,
      "inputs": [
        {
          "indexed": true,
          "internalType": "address",
          "name": "_owner",
          "type": "address"
        },
        {
          "indexed": true,
          "internalType": "address",
          "name": "_approved",
          "type": "address"
        },
        {
          "indexed": true,
          "internalType": "uint256",
          "name": "_tokenId",
          "type": "uint256"
        }
      ],
      "name": "Approval",
      "type": "event"
    },
    {
      "anonymous": false,
      "inputs": [
        {
          "indexed": true,
          "internalType": "address",
          "name": "_from",
          "type": "address"
        },
        {
          "indexed": true,
          "internalType": "address",
          "name": "_to",
          "type": "address"
        },
        {
          "indexed": true,
          "internalType": "uint256",
          "name": "_tokenId",
          "type": "uint256"
        }
      ],
      "name": "Transfer",
      "type": "event"
    },
    {
      "inputs": [
        {
          "internalType": "bytes4",
          "name": "interfaceID",
          "type": "bytes4"
        }
      ],
      "name": "supportsInterface",
      "outputs": [
        {
          "internalType": "bool",
          "name": "",
          "type": "bool"
        }
      ],
      "stateMutability": "view",
      "type": "function"
    },
    {
      "inputs": [
        {
          "internalType": "address",
          "name": "_owner",
          "type": "address"
        }
      ],
      "name": "balanceOf",
      "outputs": [
        {
          "internalType": "uint256",
          "name": "",
          "type": "uint256"
        }
      ],
      "stateMutability": "view",
      "type": "function"
    },
    {
      "inputs": [
        {
          "internalType": "uint256",
          "name": "_tokenId",
          "type": "uint256"
        }
      ],
      "name": "ownerOf",
      "outputs": [
        {
          "internalType": "address",
          "name": "",
          "type": "address"
        }
      ],
      "stateMutability": "view",
      "type": "function"
    },
    {
      "inputs": [
        {
          "internalType": "address",
          "name": "_from",
          "type": "address"
        },
        {
          "internalType": "address",
          "name": "_to",
          "type": "address"
        },
        {
          "internalType": "uint256",
          "name": "_tokenId",
          "type": "uint256"
        }
      ],
      "name": "transferFrom",
      "outputs": [],
      "stateMutability": "nonpayable",
      "type": "function"
    },
    {
      "inputs": [
        {
          "internalType": "address",
          "name": "_to",
          "type": "address"
        },
        {
          "internalType": "uint256",
          "name": "_tokenId",
          "type": "uint256"
        }
      ],
      "name": "approve",
      "outputs": [],
      "stateMutability": "nonpayable",
      "type": "function"
    },
    {
      "inputs": [
        {
          "internalType": "uint256",
          "name": "_tokenId",
          "type": "uint256"
        }
      ],
      "name": "getApproved",
      "outputs": [
        {
          "internalType": "address",
          "name": "",
          "type": "address"
        }
      ],
      "stateMutability": "view",
      "type": "function"
    }
  ],
  "bytecode": "0x608060405234801561001057600080fd5b506100407f01ffc9a7a5cef8baa21ed3c5c0d7e23accb804b619e9333b597f47a0d84076e261004560201b60201c565b610196565b63ffffffff60e01b817bffffffffffffffffffffffffffffffffffffffffffffffffffffffff1916036100ad576040517f08c379a00000000000000000000000000000000000000000000000000000000081526004016100a490610176565b60405180910390fd5b6001600080837bffffffffffffffffffffffffffffffffffffffffffffffffffffffff19167bffffffffffffffffffffffffffffffffffffffffffffffffffffffff1916815260200190815260200160002060006101000a81548160ff02191690831515021790555050565b600082825260208201905092915050565b7f696e76616c696420696e74657266616365207265717565737473000000000000600082015250565b6000610160601a83610119565b915061016b8261012a565b602082019050919050565b6000602082019050818103600083015261018f81610153565b9050919050565b610f43806101a56000396000f3fe608060405234801561001057600080fd5b50600436106100625760003560e01c806301ffc9a714610067578063081812fc14610097578063095ea7b3146100c757806323b872dd146100e35780636352211e146100ff57806370a082311461012f575b600080fd5b610081600480360381019061007c919061097f565b61015f565b60405161008e91906109c7565b60405180910390f35b6100b160048036038101906100ac9190610a18565b6101c6565b6040516100be9190610a86565b60405180910390f35b6100e160048036038101906100dc9190610acd565b61024b565b005b6100fd60048036038101906100f89190610b0d565b6103e6565b005b61011960048036038101906101149190610a18565b610409565b6040516101269190610a86565b60405180910390f35b61014960048036038101906101449190610b60565b6104e7565b6040516101569190610b9c565b60405180910390f35b6000806000837bffffffffffffffffffffffffffffffffffffffffffffffffffffffff19167bffffffffffffffffffffffffffffffffffffffffffffffffffffffff1916815260200190815260200160002060009054906101000a900460ff169050919050565b60006101d18261059e565b610210576040517f08c379a000000000000000000000000000000000000000000000000000000000815260040161020790610c14565b60405180910390fd5b6003600083815260200190815260200160002060009054906101000a900473ffffffffffffffffffffffffffffffffffffffff169050919050565b600061025682610409565b90508073ffffffffffffffffffffffffffffffffffffffff168373ffffffffffffffffffffffffffffffffffffffff16036102c6576040517f08c379a00000000000000000000000000000000000000000000000000000000081526004016102bd90610c80565b60405180910390fd5b8073ffffffffffffffffffffffffffffffffffffffff163373ffffffffffffffffffffffffffffffffffffffff1614610334576040517f08c379a000000000000000000000000000000000000000000000000000000000815260040161032b90610cec565b60405180910390fd5b826003600084815260200190815260200160002060006101000a81548173ffffffffffffffffffffffffffffffffffffffff021916908373ffffffffffffffffffffffffffffffffffffffff160217905550818373ffffffffffffffffffffffffffffffffffffffff168273ffffffffffffffffffffffffffffffffffffffff167f8c5be1e5ebec7d5bd14f71427d1e84f3dd0314c0f7b2291e5b200ac8c7c3b92560405160405180910390a4505050565b6103f03382610610565b6103f957600080fd5b6104048383836106dd565b505050565b60008073ffffffffffffffffffffffffffffffffffffffff166001600084815260200190815260200160002060009054906101000a900473ffffffffffffffffffffffffffffffffffffffff1673ffffffffffffffffffffffffffffffffffffffff16036104ac576040517f08c379a00000000000000000000000000000000000000000000000000000000081526004016104a390610d7e565b60405180910390fd5b6001600083815260200190815260200160002060009054906101000a900473ffffffffffffffffffffffffffffffffffffffff169050919050565b60008073ffffffffffffffffffffffffffffffffffffffff168273ffffffffffffffffffffffffffffffffffffffff1603610557576040517f08c379a000000000000000000000000000000000000000000000000000000000815260040161054e90610d7e565b60405180910390fd5b600260008373ffffffffffffffffffffffffffffffffffffffff1673ffffffffffffffffffffffffffffffffffffffff168152602001908152602001600020549050919050565b6000806001600084815260200190815260200160002060009054906101000a900473ffffffffffffffffffffffffffffffffffffffff169050600073ffffffffffffffffffffffffffffffffffffffff168173ffffffffffffffffffffffffffffffffffffffff161415915050919050565b600061061b8261059e565b61065a576040517f08c379a000000000000000000000000000000000000000000000000000000000815260040161065190610c14565b60405180910390fd5b600061066583610409565b90508073ffffffffffffffffffffffffffffffffffffffff168473ffffffffffffffffffffffffffffffffffffffff1614806106d457508373ffffffffffffffffffffffffffffffffffffffff166106bc846101c6565b73ffffffffffffffffffffffffffffffffffffffff16145b91505092915050565b8273ffffffffffffffffffffffffffffffffffffffff166106fd82610409565b73ffffffffffffffffffffffffffffffffffffffff1614610753576040517f08c379a000000000000000000000000000000000000000000000000000000000815260040161074a90610dea565b60405180910390fd5b600073ffffffffffffffffffffffffffffffffffffffff168273ffffffffffffffffffffffffffffffffffffffff16036107c2576040517f08c379a00000000000000000000000000000000000000000000000000000000081526004016107b990610e56565b60405180910390fd5b6001600260008573ffffffffffffffffffffffffffffffffffffffff1673ffffffffffffffffffffffffffffffffffffffff16815260200190815260200160002060008282546108129190610ea5565b925050819055506001600260008473ffffffffffffffffffffffffffffffffffffffff1673ffffffffffffffffffffffffffffffffffffffff16815260200190815260200160002060008282546108699190610ed9565b92505081905550816001600083815260200190815260200160002060006101000a81548173ffffffffffffffffffffffffffffffffffffffff021916908373ffffffffffffffffffffffffffffffffffffffff160217905550808273ffffffffffffffffffffffffffffffffffffffff168473ffffffffffffffffffffffffffffffffffffffff167fddf252ad1be2c89b69c2b068fc378daa952ba7f163c4a11628f55a4df523b3ef60405160405180910390a4505050565b600080fd5b60007fffffffff0000000000000000000000000000000000000000000000000000000082169050919050565b61095c81610927565b811461096757600080fd5b50565b60008135905061097981610953565b92915050565b60006020828403121561099557610994610922565b5b60006109a38482850161096a565b91505092915050565b60008115159050919050565b6109c1816109ac565b82525050565b60006020820190506109dc60008301846109b8565b92915050565b6000819050919050565b6109f5816109e2565b8114610a0057600080fd5b50565b600081359050610a12816109ec565b92915050565b600060208284031215610a2e57610a2d610922565b5b6000610a3c84828501610a03565b91505092915050565b600073ffffffffffffffffffffffffffffffffffffffff82169050919050565b6000610a7082610a45565b9050919050565b610a8081610a65565b82525050565b6000602082019050610a9b6000830184610a77565b92915050565b610aaa81610a65565b8114610ab557600080fd5b50565b600081359050610ac781610aa1565b92915050565b60008060408385031215610ae457610ae3610922565b5b6000610af285828601610ab8565b9250506020610b0385828601610a03565b9150509250929050565b600080600060608486031215610b2657610b25610922565b5b6000610b3486828701610ab8565b9350506020610b4586828701610ab8565b9250506040610b5686828701610a03565b9150509250925092565b600060208284031215610b7657610b75610922565b5b6000610b8484828501610ab8565b91505092915050565b610b96816109e2565b82525050565b6000602082019050610bb16000830184610b8d565b92915050565b600082825260208201905092915050565b7f746f6b656e20646f6573206e6f74206578697374000000000000000000000000600082015250565b6000610bfe601483610bb7565b9150610c0982610bc8565b602082019050919050565b60006020820190508181036000830152610c2d81610bf1565b9050919050565b7f6f776e65722063616e206e6f742073656e6420746f2073656c66000000000000600082015250565b6000610c6a601a83610bb7565b9150610c7582610c34565b602082019050919050565b60006020820190508181036000830152610c9981610c5d565b9050919050565b7f63757272656e742063616c6c6572206d757374206265206f776e204e46540000600082015250565b6000610cd6601e83610bb7565b9150610ce182610ca0565b602082019050919050565b60006020820190508181036000830152610d0581610cc9565b9050919050565b7f455243373231203a206f776e657220717565727920666f72206e6f6e2d65786960008201527f7374656e7420746f6b656e000000000000000000000000000000000000000000602082015250565b6000610d68602b83610bb7565b9150610d7382610d0c565b604082019050919050565b60006020820190508181036000830152610d9781610d5b565b9050919050565b7f455243373231203a204e6f7420746865206f776e657200000000000000000000600082015250565b6000610dd4601683610bb7565b9150610ddf82610d9e565b602082019050919050565b60006020820190508181036000830152610e0381610dc7565b9050919050565b7f455243373231203a20696e76616c696420616464726573730000000000000000600082015250565b6000610e40601883610bb7565b9150610e4b82610e0a565b602082019050919050565b60006020820190508181036000830152610e6f81610e33565b9050919050565b7f4e487b7100000000000000000000000000000000000000000000000000000000600052601160045260246000fd5b6000610eb0826109e2565b9150610ebb836109e2565b9250828203905081811115610ed357610ed2610e76565b5b92915050565b6000610ee4826109e2565b9150610eef836109e2565b9250828201905080821115610f0757610f06610e76565b5b9291505056fea264697066735822122001428833a2cac9f697632bfe7bdd4d8412a8c31c1e17f82c8ddc2cdadab8d3b364736f6c63430008120033",
  "immutableReferences": {},
  "source": "// SPDX-License-Identifier: MIT\r\npragma solidity >=0.4.0 < 0.9.0;\r\n\r\nimport './ERC165.sol';\r\nimport './interfaces/IERC721.sol';\r\n\r\n/* MINTING\r\n    1) NFT - address\r\n    2) track the token ids (each NFT has token ids)\r\n    3) track the NFT owner address\r\n    4) track how many NFT an owner has\r\n    5) emits the total info\r\n */\r\n \r\ncontract ERC721 is ERC165, IERC721 {\r\n\r\n    // IERC721 inherit  \r\n    // event Transfer(address indexed from, address indexed to, uint256 indexed tokenId);\r\n    // event Approval(address indexed owner, address indexed approved, uint256 tokenId);\r\n\r\n    mapping(uint => address) private _tokenOwner;\r\n    // map token id to address to define the token owner\r\n\r\n    mapping(address => uint) private _OwnedTokensCount;\r\n    // if owner have tokens more than one, we plus the number of tokens\r\n\r\n    // tokenId : approved addresses\r\n    mapping(uint256 => address) private _tokenApprovals;\r\n\r\n\r\n    // track how many NFT that owner have\r\n    function balanceOf(address _owner) public view override returns(uint256) {\r\n        require(_owner != address(0), \"ERC721 : owner query for non-existent token\");\r\n        return _OwnedTokensCount[_owner];\r\n    }\r\n\r\n    // input tokenId and give the owner address\r\n    function ownerOf(uint256 _tokenId) public view override returns(address) {\r\n        require(_tokenOwner[_tokenId] != address(0), \"ERC721 : owner query for non-existent token\");\r\n        return _tokenOwner[_tokenId];\r\n    }\r\n    \r\n    // find out whether the NFT have been minted before.\r\n    function _exists(uint256 tokenId) internal view returns(bool) {\r\n        address owner = _tokenOwner[tokenId];\r\n        return owner != address(0);\r\n        // if the address exist, then the NFT already have been minted before.\r\n    }\r\n    \r\n    // override _mint at ERC721Enumerable : virtual\r\n    function _mint(address to, uint256 tokenId) internal virtual{\r\n        require(to != address(0), \"ERC721 : address can not be 0\");\r\n        require(_exists(tokenId) == false, \"ERC721 : already minted\");\r\n        // 1. owner must be exist 2. tokenId must not been minted before\r\n\r\n        _tokenOwner[tokenId] = to;\r\n        // mapping NFT tokenId and owner address\r\n\r\n        _OwnedTokensCount[to] += 1;\r\n        // track the number of how many owner have\r\n\r\n        emit Transfer(address(0), to, tokenId);\r\n        // from is the contract address, for convenience address(0)\r\n    }\r\n\r\n    /* NFT : token owner -> buyer about tokenId \r\n    transferFrom -> isApprovedOrOwner -> getApproved -> _transferFrom */\r\n    function _transferFrom(address _from, address _to, uint256 _tokenId) internal {\r\n        require(ownerOf(_tokenId) == _from, 'ERC721 : Not the owner');\r\n        // only owner can send. _tokenOwner[tokenId] == _from is fine\r\n        require(_to != address(0), 'ERC721 : invalid address');\r\n        // _to address must exist\r\n\r\n        _OwnedTokensCount[_from] -= 1;\r\n        _OwnedTokensCount[_to] += 1;\r\n        _tokenOwner[_tokenId] = _to;\r\n\r\n        emit Transfer(_from, _to, _tokenId); \r\n    }\r\n\r\n    // actual transferFrom function (public)\r\n    function transferFrom(address _from, address _to, uint256 _tokenId) public override {\r\n        require(isApprovedOrOwner(msg.sender, _tokenId));\r\n        _transferFrom(_from, _to, _tokenId);\r\n    }\r\n\r\n    /* if owner approve to tranferFrom function in advance, isApprovedOrOwner works by setting _tokenApprovals\r\n    although msg.sender is not the NFT owner, if msg.sender have already been approved by NFT owner before \r\n    then can execute the transferFrom function. */\r\n    function approve(address _to, uint256 _tokenId) public override{\r\n        address owner = ownerOf(_tokenId);\r\n        require(_to != owner, 'owner can not send to self');\r\n        require(msg.sender == owner, 'current caller must be own NFT');\r\n        \r\n        _tokenApprovals[_tokenId] = _to;\r\n        emit Approval(owner, _to, _tokenId);\r\n    }\r\n\r\n    // define(bool type) : spender is an owner or spender is approved already\r\n    function isApprovedOrOwner(address spender, uint256 _tokenId) internal view returns(bool) {\r\n        require(_exists(_tokenId),'token does not exist');\r\n        address owner = ownerOf(_tokenId);\r\n        return(spender == owner || getApproved(_tokenId) == spender);\r\n        // 1) owner or 2) approved already\r\n    }\r\n\r\n    // return approved address per tokenId : _tokenApprovals\r\n    function getApproved(uint256 _tokenId) public override view returns(address) {\r\n        require(_exists(_tokenId), 'token does not exist');\r\n        return _tokenApprovals[_tokenId];\r\n    }\r\n}",
  "sourcePath": "C:\\Users\\hyean\\Desktop\\NFT-market-website\\src\\contracts\\ERC721.sol",
  "compiler": {
    "name": "solc",
    "version": "0.8.18+commit.87f61d96.Emscripten.clang"
  },
  "schemaVersion": "3.4.11",
  "updatedAt": "2023-02-07T11:26:54.582Z",
  "devdoc": {
    "kind": "dev",
    "methods": {
      "supportsInterface(bytes4)": {
        "details": "Interface identification is specified in ERC-165. This function  uses less than 30,000 gas.",
        "params": {
          "interfaceID": "The interface identifier, as specified in ERC-165"
        },
        "returns": {
          "_0": "`true` if the contract implements `interfaceID` and  `interfaceID` is not 0xffffffff, `false` otherwise"
        }
      },
      "transferFrom(address,address,uint256)": {
        "details": "This works identically to the other function with an extra data parameter,  except this function just sets data to \"\".",
        "params": {
          "_from": "The current owner of the NFT",
          "_to": "The new owner",
          "_tokenId": "The NFT to transfer"
        }
      }
    },
    "version": 1
  },
  "userdoc": {
    "kind": "user",
    "methods": {
      "supportsInterface(bytes4)": {
        "notice": "Query if a contract implements an interface"
      },
      "transferFrom(address,address,uint256)": {
        "notice": "Transfers the ownership of an NFT from one address to another address"
      }
    },
    "version": 1
  }
}