{
  "contractName": "ERC721",
  "abi": [
    {
      "inputs": [],
      "stateMutability": "nonpayable",
      "type": "constructor"
    },
    {
      "anonymous": false,
      "inputs": [
        {
          "indexed": true,
          "internalType": "address",
          "name": "_owner",
          "type": "address"
        },
        {
          "indexed": true,
          "internalType": "address",
          "name": "_approved",
          "type": "address"
        },
        {
          "indexed": true,
          "internalType": "uint256",
          "name": "_tokenId",
          "type": "uint256"
        }
      ],
      "name": "Approval",
      "type": "event"
    },
    {
      "anonymous": false,
      "inputs": [
        {
          "indexed": true,
          "internalType": "address",
          "name": "_from",
          "type": "address"
        },
        {
          "indexed": true,
          "internalType": "address",
          "name": "_to",
          "type": "address"
        },
        {
          "indexed": true,
          "internalType": "uint256",
          "name": "_tokenId",
          "type": "uint256"
        }
      ],
      "name": "Transfer",
      "type": "event"
    },
    {
      "inputs": [
        {
          "internalType": "bytes4",
          "name": "interfaceID",
          "type": "bytes4"
        }
      ],
      "name": "supportsInterface",
      "outputs": [
        {
          "internalType": "bool",
          "name": "",
          "type": "bool"
        }
      ],
      "stateMutability": "view",
      "type": "function"
    },
    {
      "inputs": [
        {
          "internalType": "address",
          "name": "_owner",
          "type": "address"
        }
      ],
      "name": "balanceOf",
      "outputs": [
        {
          "internalType": "uint256",
          "name": "",
          "type": "uint256"
        }
      ],
      "stateMutability": "view",
      "type": "function"
    },
    {
      "inputs": [
        {
          "internalType": "uint256",
          "name": "_tokenId",
          "type": "uint256"
        }
      ],
      "name": "ownerOf",
      "outputs": [
        {
          "internalType": "address",
          "name": "",
          "type": "address"
        }
      ],
      "stateMutability": "view",
      "type": "function"
    },
    {
      "inputs": [
        {
          "internalType": "address",
          "name": "_from",
          "type": "address"
        },
        {
          "internalType": "address",
          "name": "_to",
          "type": "address"
        },
        {
          "internalType": "uint256",
          "name": "_tokenId",
          "type": "uint256"
        }
      ],
      "name": "transferFrom",
      "outputs": [],
      "stateMutability": "nonpayable",
      "type": "function"
    },
    {
      "inputs": [
        {
          "internalType": "address",
          "name": "_to",
          "type": "address"
        },
        {
          "internalType": "uint256",
          "name": "_tokenId",
          "type": "uint256"
        }
      ],
      "name": "approve",
      "outputs": [],
      "stateMutability": "nonpayable",
      "type": "function"
    },
    {
      "inputs": [
        {
          "internalType": "uint256",
          "name": "_tokenId",
          "type": "uint256"
        }
      ],
      "name": "getApproved",
      "outputs": [
        {
          "internalType": "address",
          "name": "",
          "type": "address"
        }
      ],
      "stateMutability": "view",
      "type": "function"
    }
  ],
  "bytecode": "0x60806040523480156200001157600080fd5b50620000437f01ffc9a7a5cef8baa21ed3c5c0d7e23accb804b619e9333b597f47a0d84076e26200010260201b60201c565b620000fc7f5af227006b8981efabb10af200ab71f08976cbce54b4c59ae5c97811d19a398c7f8c51fd5fcf1f456ec4eb0f32f68d83471264fe082fac12bcbfd2fa4be9eed6c77f22c82707ba960a14c7592ffb6b8cfaa073fed0048a84cc7fa41f6b5bd8e7f2e47f3a6eb71757dfc6e784c1459d26270140c2c147d95ca985c80026fc5301c3eca17f8a7e378434598edc36d108689a030cbc9d7d465de4f74c71bae1028eed6a881b181818186200010260201b60201c565b6200025c565b63ffffffff60e01b817bffffffffffffffffffffffffffffffffffffffffffffffffffffffff1916036200016d576040517f08c379a000000000000000000000000000000000000000000000000000000000815260040162000164906200023a565b60405180910390fd5b6001600080837bffffffffffffffffffffffffffffffffffffffffffffffffffffffff19167bffffffffffffffffffffffffffffffffffffffffffffffffffffffff1916815260200190815260200160002060006101000a81548160ff02191690831515021790555050565b600082825260208201905092915050565b7f696e76616c696420696e74657266616365207265717565737473000000000000600082015250565b600062000222601a83620001d9565b91506200022f82620001ea565b602082019050919050565b60006020820190508181036000830152620002558162000213565b9050919050565b611044806200026c6000396000f3fe608060405234801561001057600080fd5b50600436106100625760003560e01c806301ffc9a714610067578063081812fc14610097578063095ea7b3146100c757806323b872dd146100e35780636352211e146100ff57806370a082311461012f575b600080fd5b610081600480360381019061007c9190610a14565b61015f565b60405161008e9190610a5c565b60405180910390f35b6100b160048036038101906100ac9190610aad565b6101c6565b6040516100be9190610b1b565b60405180910390f35b6100e160048036038101906100dc9190610b62565b61024b565b005b6100fd60048036038101906100f89190610ba2565b6103e6565b005b61011960048036038101906101149190610aad565b610409565b6040516101269190610b1b565b60405180910390f35b61014960048036038101906101449190610bf5565b6104e7565b6040516101569190610c31565b60405180910390f35b6000806000837bffffffffffffffffffffffffffffffffffffffffffffffffffffffff19167bffffffffffffffffffffffffffffffffffffffffffffffffffffffff1916815260200190815260200160002060009054906101000a900460ff169050919050565b60006101d1826105a5565b610210576040517f08c379a000000000000000000000000000000000000000000000000000000000815260040161020790610ca9565b60405180910390fd5b6003600083815260200190815260200160002060009054906101000a900473ffffffffffffffffffffffffffffffffffffffff169050919050565b600061025682610409565b90508073ffffffffffffffffffffffffffffffffffffffff168373ffffffffffffffffffffffffffffffffffffffff16036102c6576040517f08c379a00000000000000000000000000000000000000000000000000000000081526004016102bd90610d15565b60405180910390fd5b8073ffffffffffffffffffffffffffffffffffffffff163373ffffffffffffffffffffffffffffffffffffffff1614610334576040517f08c379a000000000000000000000000000000000000000000000000000000000815260040161032b90610d81565b60405180910390fd5b826003600084815260200190815260200160002060006101000a81548173ffffffffffffffffffffffffffffffffffffffff021916908373ffffffffffffffffffffffffffffffffffffffff160217905550818373ffffffffffffffffffffffffffffffffffffffff168273ffffffffffffffffffffffffffffffffffffffff167f8c5be1e5ebec7d5bd14f71427d1e84f3dd0314c0f7b2291e5b200ac8c7c3b92560405160405180910390a4505050565b6103f03382610617565b6103f957600080fd5b6104048383836106e4565b505050565b60008073ffffffffffffffffffffffffffffffffffffffff166001600084815260200190815260200160002060009054906101000a900473ffffffffffffffffffffffffffffffffffffffff1673ffffffffffffffffffffffffffffffffffffffff16036104ac576040517f08c379a00000000000000000000000000000000000000000000000000000000081526004016104a390610e13565b60405180910390fd5b6001600083815260200190815260200160002060009054906101000a900473ffffffffffffffffffffffffffffffffffffffff169050919050565b60008073ffffffffffffffffffffffffffffffffffffffff168273ffffffffffffffffffffffffffffffffffffffff1603610557576040517f08c379a000000000000000000000000000000000000000000000000000000000815260040161054e90610e13565b60405180910390fd5b61059e600260008473ffffffffffffffffffffffffffffffffffffffff1673ffffffffffffffffffffffffffffffffffffffff168152602001908152602001600020610909565b9050919050565b6000806001600084815260200190815260200160002060009054906101000a900473ffffffffffffffffffffffffffffffffffffffff169050600073ffffffffffffffffffffffffffffffffffffffff168173ffffffffffffffffffffffffffffffffffffffff161415915050919050565b6000610622826105a5565b610661576040517f08c379a000000000000000000000000000000000000000000000000000000000815260040161065890610ca9565b60405180910390fd5b600061066c83610409565b90508073ffffffffffffffffffffffffffffffffffffffff168473ffffffffffffffffffffffffffffffffffffffff1614806106db57508373ffffffffffffffffffffffffffffffffffffffff166106c3846101c6565b73ffffffffffffffffffffffffffffffffffffffff16145b91505092915050565b8273ffffffffffffffffffffffffffffffffffffffff1661070482610409565b73ffffffffffffffffffffffffffffffffffffffff161461075a576040517f08c379a000000000000000000000000000000000000000000000000000000000815260040161075190610e7f565b60405180910390fd5b600073ffffffffffffffffffffffffffffffffffffffff168273ffffffffffffffffffffffffffffffffffffffff16036107c9576040517f08c379a00000000000000000000000000000000000000000000000000000000081526004016107c090610eeb565b60405180910390fd5b610810600260008573ffffffffffffffffffffffffffffffffffffffff1673ffffffffffffffffffffffffffffffffffffffff168152602001908152602001600020610917565b610857600260008473ffffffffffffffffffffffffffffffffffffffff1673ffffffffffffffffffffffffffffffffffffffff16815260200190815260200160002061093a565b816001600083815260200190815260200160002060006101000a81548173ffffffffffffffffffffffffffffffffffffffff021916908373ffffffffffffffffffffffffffffffffffffffff160217905550808273ffffffffffffffffffffffffffffffffffffffff168473ffffffffffffffffffffffffffffffffffffffff167fddf252ad1be2c89b69c2b068fc378daa952ba7f163c4a11628f55a4df523b3ef60405160405180910390a4505050565b600081600001549050919050565b61092f6001826000015461095990919063ffffffff16565b816000018190555050565b600181600001600082825461094f9190610f3a565b9250508190555050565b60008082846109689190610f6e565b9050838110156109ad576040517f08c379a00000000000000000000000000000000000000000000000000000000081526004016109a490610fee565b60405180910390fd5b8091505092915050565b600080fd5b60007fffffffff0000000000000000000000000000000000000000000000000000000082169050919050565b6109f1816109bc565b81146109fc57600080fd5b50565b600081359050610a0e816109e8565b92915050565b600060208284031215610a2a57610a296109b7565b5b6000610a38848285016109ff565b91505092915050565b60008115159050919050565b610a5681610a41565b82525050565b6000602082019050610a716000830184610a4d565b92915050565b6000819050919050565b610a8a81610a77565b8114610a9557600080fd5b50565b600081359050610aa781610a81565b92915050565b600060208284031215610ac357610ac26109b7565b5b6000610ad184828501610a98565b91505092915050565b600073ffffffffffffffffffffffffffffffffffffffff82169050919050565b6000610b0582610ada565b9050919050565b610b1581610afa565b82525050565b6000602082019050610b306000830184610b0c565b92915050565b610b3f81610afa565b8114610b4a57600080fd5b50565b600081359050610b5c81610b36565b92915050565b60008060408385031215610b7957610b786109b7565b5b6000610b8785828601610b4d565b9250506020610b9885828601610a98565b9150509250929050565b600080600060608486031215610bbb57610bba6109b7565b5b6000610bc986828701610b4d565b9350506020610bda86828701610b4d565b9250506040610beb86828701610a98565b9150509250925092565b600060208284031215610c0b57610c0a6109b7565b5b6000610c1984828501610b4d565b91505092915050565b610c2b81610a77565b82525050565b6000602082019050610c466000830184610c22565b92915050565b600082825260208201905092915050565b7f746f6b656e20646f6573206e6f74206578697374000000000000000000000000600082015250565b6000610c93601483610c4c565b9150610c9e82610c5d565b602082019050919050565b60006020820190508181036000830152610cc281610c86565b9050919050565b7f6f776e65722063616e206e6f742073656e6420746f2073656c66000000000000600082015250565b6000610cff601a83610c4c565b9150610d0a82610cc9565b602082019050919050565b60006020820190508181036000830152610d2e81610cf2565b9050919050565b7f63757272656e742063616c6c6572206d757374206265206f776e204e46540000600082015250565b6000610d6b601e83610c4c565b9150610d7682610d35565b602082019050919050565b60006020820190508181036000830152610d9a81610d5e565b9050919050565b7f455243373231203a206f776e657220717565727920666f72206e6f6e2d65786960008201527f7374656e7420746f6b656e000000000000000000000000000000000000000000602082015250565b6000610dfd602b83610c4c565b9150610e0882610da1565b604082019050919050565b60006020820190508181036000830152610e2c81610df0565b9050919050565b7f455243373231203a204e6f7420746865206f776e657200000000000000000000600082015250565b6000610e69601683610c4c565b9150610e7482610e33565b602082019050919050565b60006020820190508181036000830152610e9881610e5c565b9050919050565b7f455243373231203a20696e76616c696420616464726573730000000000000000600082015250565b6000610ed5601883610c4c565b9150610ee082610e9f565b602082019050919050565b60006020820190508181036000830152610f0481610ec8565b9050919050565b7f4e487b7100000000000000000000000000000000000000000000000000000000600052601160045260246000fd5b6000610f4582610a77565b9150610f5083610a77565b9250828201905080821115610f6857610f67610f0b565b5b92915050565b6000610f7982610a77565b9150610f8483610a77565b9250828203905081811115610f9c57610f9b610f0b565b5b92915050565b7f535542204f564552464c4f572045524f52520000000000000000000000000000600082015250565b6000610fd8601283610c4c565b9150610fe382610fa2565b602082019050919050565b6000602082019050818103600083015261100781610fcb565b905091905056fea264697066735822122009b17ccacb978bf877f118d18844da9b12a99ba4a0de0c16ad8e54a23bbf39f064736f6c63430008120033",
  "immutableReferences": {},
  "source": "// SPDX-License-Identifier: MIT\r\npragma solidity >=0.4.0 < 0.9.0;\r\n\r\nimport './ERC165.sol';\r\nimport './interfaces/IERC721.sol';\r\nimport './Libraries/Counters.sol';\r\n\r\n/* MINTING\r\n    1) NFT - address\r\n    2) track the token ids (each NFT has token ids)\r\n    3) track the NFT owner address\r\n    4) track how many NFT an owner has\r\n    5) emits the total info\r\n */\r\n \r\ncontract ERC721 is ERC165, IERC721 {\r\n\r\n    // use SafeMath through all uint256 and Counters through Counters.Counter\r\n    using SafeMath for uint256;\r\n    using Counters for Counters.Counter;\r\n\r\n    // IERC721 inherit  \r\n    // event Transfer(address indexed from, address indexed to, uint256 indexed tokenId);\r\n    // event Approval(address indexed owner, address indexed approved, uint256 tokenId);\r\n\r\n    mapping(uint => address) private _tokenOwner;\r\n    // map token id to address to define the token owner\r\n\r\n    mapping(address => Counters.Counter) private _OwnedTokensCount;\r\n    // if owner have tokens more than one, we plus the number of tokens / to _value\r\n    // uint256 => Counters.Counter\r\n\r\n    // tokenId : approved addresses\r\n    mapping(uint256 => address) private _tokenApprovals;\r\n\r\n    // register dataprint\r\n    constructor() {\r\n        _registerInterface(bytes4(\r\n            keccak256('balanceOf(bytes4)')^\r\n            keccak256('ownerOf(bytes4)')^\r\n            keccak256('transferFrom(bytes4)')^\r\n            keccak256('approve(bytes4)')^\r\n            keccak256('getApproved(bytes4)')\r\n        ));\r\n        // keccak256(XOR) find data fingerprint(0X........) by interpreting data per bytes\r\n    }\r\n\r\n    // track how many NFT that owner have\r\n    function balanceOf(address _owner) public view override returns(uint256) {\r\n        require(_owner != address(0), \"ERC721 : owner query for non-existent token\");\r\n        return _OwnedTokensCount[_owner].current();\r\n        // _OwnedTokensCount[_owner] => Counter : Counter.current() => uint256\r\n    }\r\n\r\n    // input tokenId and give the owner address\r\n    function ownerOf(uint256 _tokenId) public view override returns(address) {\r\n        require(_tokenOwner[_tokenId] != address(0), \"ERC721 : owner query for non-existent token\");\r\n        return _tokenOwner[_tokenId];\r\n    }\r\n    \r\n    // find out whether the NFT have been minted before.\r\n    function _exists(uint256 tokenId) internal view returns(bool) {\r\n        address owner = _tokenOwner[tokenId];\r\n        return owner != address(0);\r\n        // if the address exist, then the NFT already have been minted before.\r\n    }\r\n    \r\n    // override _mint at ERC721Enumerable : virtual\r\n    function _mint(address to, uint256 tokenId) internal virtual{\r\n        require(to != address(0), \"ERC721 : address can not be 0\");\r\n        require(_exists(tokenId) == false, \"ERC721 : already minted\");\r\n        // 1. owner must be exist 2. tokenId must not been minted before\r\n\r\n        _tokenOwner[tokenId] = to;\r\n        // mapping NFT tokenId and owner address\r\n\r\n        _OwnedTokensCount[to].increaseOne();\r\n        // _OwnedTokensCount[to] += 1;\r\n        // track the number of how many owner have\r\n\r\n        emit Transfer(address(0), to, tokenId);\r\n        // from is the contract address, for convenience address(0)\r\n    }\r\n\r\n    /* NFT : token owner -> buyer about tokenId \r\n    transferFrom -> isApprovedOrOwner -> getApproved -> _transferFrom */\r\n    function _transferFrom(address _from, address _to, uint256 _tokenId) internal {\r\n        require(ownerOf(_tokenId) == _from, 'ERC721 : Not the owner');\r\n        // only owner can send. _tokenOwner[tokenId] == _from is fine\r\n        require(_to != address(0), 'ERC721 : invalid address');\r\n        // _to address must exist\r\n\r\n        _OwnedTokensCount[_from].decreaseOne();\r\n        _OwnedTokensCount[_to].increaseOne();\r\n        // _OwnedTokensCount[_from] -= 1;\r\n        // _OwnedTokensCount[_to] += 1;\r\n        _tokenOwner[_tokenId] = _to;\r\n\r\n        emit Transfer(_from, _to, _tokenId); \r\n    }\r\n\r\n    // actual transferFrom function (public)\r\n    function transferFrom(address _from, address _to, uint256 _tokenId) public override {\r\n        require(isApprovedOrOwner(msg.sender, _tokenId));\r\n        _transferFrom(_from, _to, _tokenId);\r\n    }\r\n\r\n    /* if owner approve to tranferFrom function in advance, isApprovedOrOwner works by setting _tokenApprovals\r\n    although msg.sender is not the NFT owner, if msg.sender have already been approved by NFT owner before \r\n    then can execute the transferFrom function. */\r\n    function approve(address _to, uint256 _tokenId) public override{\r\n        address owner = ownerOf(_tokenId);\r\n        require(_to != owner, 'owner can not send to self');\r\n        require(msg.sender == owner, 'current caller must be own NFT');\r\n        \r\n        _tokenApprovals[_tokenId] = _to;\r\n        emit Approval(owner, _to, _tokenId);\r\n    }\r\n\r\n    // define(bool type) : spender is an owner or spender is approved already\r\n    function isApprovedOrOwner(address spender, uint256 _tokenId) internal view returns(bool) {\r\n        require(_exists(_tokenId),'token does not exist');\r\n        address owner = ownerOf(_tokenId);\r\n        return(spender == owner || getApproved(_tokenId) == spender);\r\n        // 1) owner or 2) approved already\r\n    }\r\n\r\n    // return approved address per tokenId : _tokenApprovals\r\n    function getApproved(uint256 _tokenId) public override view returns(address) {\r\n        require(_exists(_tokenId), 'token does not exist');\r\n        return _tokenApprovals[_tokenId];\r\n    }\r\n}",
  "sourcePath": "C:\\Users\\hyean\\Desktop\\NFT-market-web\\src\\contracts\\ERC721.sol",
  "compiler": {
    "name": "solc",
    "version": "0.8.18+commit.87f61d96.Emscripten.clang"
  },
  "schemaVersion": "3.4.11",
  "updatedAt": "2023-02-21T08:09:08.582Z",
  "devdoc": {
    "kind": "dev",
    "methods": {
      "supportsInterface(bytes4)": {
        "details": "Interface identification is specified in ERC-165. This function  uses less than 30,000 gas.",
        "params": {
          "interfaceID": "The interface identifier, as specified in ERC-165"
        },
        "returns": {
          "_0": "`true` if the contract implements `interfaceID` and  `interfaceID` is not 0xffffffff, `false` otherwise"
        }
      }
    },
    "version": 1
  },
  "userdoc": {
    "kind": "user",
    "methods": {
      "supportsInterface(bytes4)": {
        "notice": "Query if a contract implements an interface"
      }
    },
    "version": 1
  }
}