{
  "contractName": "ERC721Enumerable",
  "abi": [
    {
      "anonymous": false,
      "inputs": [
        {
          "indexed": true,
          "internalType": "address",
          "name": "_owner",
          "type": "address"
        },
        {
          "indexed": true,
          "internalType": "address",
          "name": "_approved",
          "type": "address"
        },
        {
          "indexed": true,
          "internalType": "uint256",
          "name": "_tokenId",
          "type": "uint256"
        }
      ],
      "name": "Approval",
      "type": "event"
    },
    {
      "anonymous": false,
      "inputs": [
        {
          "indexed": true,
          "internalType": "address",
          "name": "_from",
          "type": "address"
        },
        {
          "indexed": true,
          "internalType": "address",
          "name": "_to",
          "type": "address"
        },
        {
          "indexed": true,
          "internalType": "uint256",
          "name": "_tokenId",
          "type": "uint256"
        }
      ],
      "name": "Transfer",
      "type": "event"
    },
    {
      "inputs": [
        {
          "internalType": "address",
          "name": "_to",
          "type": "address"
        },
        {
          "internalType": "uint256",
          "name": "_tokenId",
          "type": "uint256"
        }
      ],
      "name": "approve",
      "outputs": [],
      "stateMutability": "nonpayable",
      "type": "function"
    },
    {
      "inputs": [
        {
          "internalType": "address",
          "name": "_owner",
          "type": "address"
        }
      ],
      "name": "balanceOf",
      "outputs": [
        {
          "internalType": "uint256",
          "name": "",
          "type": "uint256"
        }
      ],
      "stateMutability": "view",
      "type": "function"
    },
    {
      "inputs": [
        {
          "internalType": "uint256",
          "name": "_tokenId",
          "type": "uint256"
        }
      ],
      "name": "getApproved",
      "outputs": [
        {
          "internalType": "address",
          "name": "",
          "type": "address"
        }
      ],
      "stateMutability": "view",
      "type": "function"
    },
    {
      "inputs": [
        {
          "internalType": "uint256",
          "name": "_tokenId",
          "type": "uint256"
        }
      ],
      "name": "ownerOf",
      "outputs": [
        {
          "internalType": "address",
          "name": "",
          "type": "address"
        }
      ],
      "stateMutability": "view",
      "type": "function"
    },
    {
      "inputs": [
        {
          "internalType": "bytes4",
          "name": "interfaceID",
          "type": "bytes4"
        }
      ],
      "name": "supportsInterface",
      "outputs": [
        {
          "internalType": "bool",
          "name": "",
          "type": "bool"
        }
      ],
      "stateMutability": "view",
      "type": "function"
    },
    {
      "inputs": [
        {
          "internalType": "address",
          "name": "_from",
          "type": "address"
        },
        {
          "internalType": "address",
          "name": "_to",
          "type": "address"
        },
        {
          "internalType": "uint256",
          "name": "_tokenId",
          "type": "uint256"
        }
      ],
      "name": "transferFrom",
      "outputs": [],
      "stateMutability": "nonpayable",
      "type": "function"
    },
    {
      "inputs": [],
      "name": "totalSupply",
      "outputs": [
        {
          "internalType": "uint256",
          "name": "",
          "type": "uint256"
        }
      ],
      "stateMutability": "view",
      "type": "function"
    },
    {
      "inputs": [
        {
          "internalType": "uint256",
          "name": "_index",
          "type": "uint256"
        }
      ],
      "name": "tokenByIndex",
      "outputs": [
        {
          "internalType": "uint256",
          "name": "",
          "type": "uint256"
        }
      ],
      "stateMutability": "view",
      "type": "function"
    },
    {
      "inputs": [
        {
          "internalType": "address",
          "name": "_owner",
          "type": "address"
        },
        {
          "internalType": "uint256",
          "name": "_index",
          "type": "uint256"
        }
      ],
      "name": "tokenOfOwnerByIndex",
      "outputs": [
        {
          "internalType": "uint256",
          "name": "",
          "type": "uint256"
        }
      ],
      "stateMutability": "view",
      "type": "function"
    }
  ],
  "bytecode": "0x608060405234801561001057600080fd5b506100407f01ffc9a7a5cef8baa21ed3c5c0d7e23accb804b619e9333b597f47a0d84076e261004560201b60201c565b610196565b63ffffffff60e01b817bffffffffffffffffffffffffffffffffffffffffffffffffffffffff1916036100ad576040517f08c379a00000000000000000000000000000000000000000000000000000000081526004016100a490610176565b60405180910390fd5b6001600080837bffffffffffffffffffffffffffffffffffffffffffffffffffffffff19167bffffffffffffffffffffffffffffffffffffffffffffffffffffffff1916815260200190815260200160002060006101000a81548160ff02191690831515021790555050565b600082825260208201905092915050565b7f696e76616c696420696e74657266616365207265717565737473000000000000600082015250565b6000610160601a83610119565b915061016b8261012a565b602082019050919050565b6000602082019050818103600083015261018f81610153565b9050919050565b61122780620001a66000396000f3fe608060405234801561001057600080fd5b50600436106100935760003560e01c806323b872dd1161006657806323b872dd146101325780632f745c591461014e5780634f6ccce71461017e5780636352211e146101ae57806370a08231146101de57610093565b806301ffc9a714610098578063081812fc146100c8578063095ea7b3146100f857806318160ddd14610114575b600080fd5b6100b260048036038101906100ad9190610b5c565b61020e565b6040516100bf9190610ba4565b60405180910390f35b6100e260048036038101906100dd9190610bf5565b610275565b6040516100ef9190610c63565b60405180910390f35b610112600480360381019061010d9190610caa565b6102fa565b005b61011c610495565b6040516101299190610cf9565b60405180910390f35b61014c60048036038101906101479190610d14565b6104a2565b005b61016860048036038101906101639190610caa565b6104c5565b6040516101759190610cf9565b60405180910390f35b61019860048036038101906101939190610bf5565b610575565b6040516101a59190610cf9565b60405180910390f35b6101c860048036038101906101c39190610bf5565b6105e6565b6040516101d59190610c63565b60405180910390f35b6101f860048036038101906101f39190610d67565b6106c4565b6040516102059190610cf9565b60405180910390f35b6000806000837bffffffffffffffffffffffffffffffffffffffffffffffffffffffff19167bffffffffffffffffffffffffffffffffffffffffffffffffffffffff1916815260200190815260200160002060009054906101000a900460ff169050919050565b60006102808261077b565b6102bf576040517f08c379a00000000000000000000000000000000000000000000000000000000081526004016102b690610df1565b60405180910390fd5b6003600083815260200190815260200160002060009054906101000a900473ffffffffffffffffffffffffffffffffffffffff169050919050565b6000610305826105e6565b90508073ffffffffffffffffffffffffffffffffffffffff168373ffffffffffffffffffffffffffffffffffffffff1603610375576040517f08c379a000000000000000000000000000000000000000000000000000000000815260040161036c90610e5d565b60405180910390fd5b8073ffffffffffffffffffffffffffffffffffffffff163373ffffffffffffffffffffffffffffffffffffffff16146103e3576040517f08c379a00000000000000000000000000000000000000000000000000000000081526004016103da90610ec9565b60405180910390fd5b826003600084815260200190815260200160002060006101000a81548173ffffffffffffffffffffffffffffffffffffffff021916908373ffffffffffffffffffffffffffffffffffffffff160217905550818373ffffffffffffffffffffffffffffffffffffffff168273ffffffffffffffffffffffffffffffffffffffff167f8c5be1e5ebec7d5bd14f71427d1e84f3dd0314c0f7b2291e5b200ac8c7c3b92560405160405180910390a4505050565b6000600480549050905090565b6104ac33826107ed565b6104b557600080fd5b6104c08383836108ba565b505050565b60006104d0836106c4565b8210610511576040517f08c379a000000000000000000000000000000000000000000000000000000000815260040161050890610f35565b60405180910390fd5b600660008473ffffffffffffffffffffffffffffffffffffffff1673ffffffffffffffffffffffffffffffffffffffff168152602001908152602001600020828154811061056257610561610f55565b5b9060005260206000200154905092915050565b600061057f610495565b82106105c0576040517f08c379a00000000000000000000000000000000000000000000000000000000081526004016105b790610fd0565b60405180910390fd5b600482815481106105d4576105d3610f55565b5b90600052602060002001549050919050565b60008073ffffffffffffffffffffffffffffffffffffffff166001600084815260200190815260200160002060009054906101000a900473ffffffffffffffffffffffffffffffffffffffff1673ffffffffffffffffffffffffffffffffffffffff1603610689576040517f08c379a000000000000000000000000000000000000000000000000000000000815260040161068090611062565b60405180910390fd5b6001600083815260200190815260200160002060009054906101000a900473ffffffffffffffffffffffffffffffffffffffff169050919050565b60008073ffffffffffffffffffffffffffffffffffffffff168273ffffffffffffffffffffffffffffffffffffffff1603610734576040517f08c379a000000000000000000000000000000000000000000000000000000000815260040161072b90611062565b60405180910390fd5b600260008373ffffffffffffffffffffffffffffffffffffffff1673ffffffffffffffffffffffffffffffffffffffff168152602001908152602001600020549050919050565b6000806001600084815260200190815260200160002060009054906101000a900473ffffffffffffffffffffffffffffffffffffffff169050600073ffffffffffffffffffffffffffffffffffffffff168173ffffffffffffffffffffffffffffffffffffffff161415915050919050565b60006107f88261077b565b610837576040517f08c379a000000000000000000000000000000000000000000000000000000000815260040161082e90610df1565b60405180910390fd5b6000610842836105e6565b90508073ffffffffffffffffffffffffffffffffffffffff168473ffffffffffffffffffffffffffffffffffffffff1614806108b157508373ffffffffffffffffffffffffffffffffffffffff1661089984610275565b73ffffffffffffffffffffffffffffffffffffffff16145b91505092915050565b8273ffffffffffffffffffffffffffffffffffffffff166108da826105e6565b73ffffffffffffffffffffffffffffffffffffffff1614610930576040517f08c379a0000000000000000000000000000000000000000000000000000000008152600401610927906110ce565b60405180910390fd5b600073ffffffffffffffffffffffffffffffffffffffff168273ffffffffffffffffffffffffffffffffffffffff160361099f576040517f08c379a00000000000000000000000000000000000000000000000000000000081526004016109969061113a565b60405180910390fd5b6001600260008573ffffffffffffffffffffffffffffffffffffffff1673ffffffffffffffffffffffffffffffffffffffff16815260200190815260200160002060008282546109ef9190611189565b925050819055506001600260008473ffffffffffffffffffffffffffffffffffffffff1673ffffffffffffffffffffffffffffffffffffffff1681526020019081526020016000206000828254610a4691906111bd565b92505081905550816001600083815260200190815260200160002060006101000a81548173ffffffffffffffffffffffffffffffffffffffff021916908373ffffffffffffffffffffffffffffffffffffffff160217905550808273ffffffffffffffffffffffffffffffffffffffff168473ffffffffffffffffffffffffffffffffffffffff167fddf252ad1be2c89b69c2b068fc378daa952ba7f163c4a11628f55a4df523b3ef60405160405180910390a4505050565b600080fd5b60007fffffffff0000000000000000000000000000000000000000000000000000000082169050919050565b610b3981610b04565b8114610b4457600080fd5b50565b600081359050610b5681610b30565b92915050565b600060208284031215610b7257610b71610aff565b5b6000610b8084828501610b47565b91505092915050565b60008115159050919050565b610b9e81610b89565b82525050565b6000602082019050610bb96000830184610b95565b92915050565b6000819050919050565b610bd281610bbf565b8114610bdd57600080fd5b50565b600081359050610bef81610bc9565b92915050565b600060208284031215610c0b57610c0a610aff565b5b6000610c1984828501610be0565b91505092915050565b600073ffffffffffffffffffffffffffffffffffffffff82169050919050565b6000610c4d82610c22565b9050919050565b610c5d81610c42565b82525050565b6000602082019050610c786000830184610c54565b92915050565b610c8781610c42565b8114610c9257600080fd5b50565b600081359050610ca481610c7e565b92915050565b60008060408385031215610cc157610cc0610aff565b5b6000610ccf85828601610c95565b9250506020610ce085828601610be0565b9150509250929050565b610cf381610bbf565b82525050565b6000602082019050610d0e6000830184610cea565b92915050565b600080600060608486031215610d2d57610d2c610aff565b5b6000610d3b86828701610c95565b9350506020610d4c86828701610c95565b9250506040610d5d86828701610be0565b9150509250925092565b600060208284031215610d7d57610d7c610aff565b5b6000610d8b84828501610c95565b91505092915050565b600082825260208201905092915050565b7f746f6b656e20646f6573206e6f74206578697374000000000000000000000000600082015250565b6000610ddb601483610d94565b9150610de682610da5565b602082019050919050565b60006020820190508181036000830152610e0a81610dce565b9050919050565b7f6f776e65722063616e206e6f742073656e6420746f2073656c66000000000000600082015250565b6000610e47601a83610d94565b9150610e5282610e11565b602082019050919050565b60006020820190508181036000830152610e7681610e3a565b9050919050565b7f63757272656e742063616c6c6572206d757374206265206f776e204e46540000600082015250565b6000610eb3601e83610d94565b9150610ebe82610e7d565b602082019050919050565b60006020820190508181036000830152610ee281610ea6565b9050919050565b7f6f776e657220696e646578206973206f7574206f6620626f756e64732e000000600082015250565b6000610f1f601d83610d94565b9150610f2a82610ee9565b602082019050919050565b60006020820190508181036000830152610f4e81610f12565b9050919050565b7f4e487b7100000000000000000000000000000000000000000000000000000000600052603260045260246000fd5b7f676c6f62616c20696e646578206973206f7574206f6620626f756e64732e0000600082015250565b6000610fba601e83610d94565b9150610fc582610f84565b602082019050919050565b60006020820190508181036000830152610fe981610fad565b9050919050565b7f455243373231203a206f776e657220717565727920666f72206e6f6e2d65786960008201527f7374656e7420746f6b656e000000000000000000000000000000000000000000602082015250565b600061104c602b83610d94565b915061105782610ff0565b604082019050919050565b6000602082019050818103600083015261107b8161103f565b9050919050565b7f455243373231203a204e6f7420746865206f776e657200000000000000000000600082015250565b60006110b8601683610d94565b91506110c382611082565b602082019050919050565b600060208201905081810360008301526110e7816110ab565b9050919050565b7f455243373231203a20696e76616c696420616464726573730000000000000000600082015250565b6000611124601883610d94565b915061112f826110ee565b602082019050919050565b6000602082019050818103600083015261115381611117565b9050919050565b7f4e487b7100000000000000000000000000000000000000000000000000000000600052601160045260246000fd5b600061119482610bbf565b915061119f83610bbf565b92508282039050818111156111b7576111b661115a565b5b92915050565b60006111c882610bbf565b91506111d383610bbf565b92508282019050808211156111eb576111ea61115a565b5b9291505056fea26469706673582212203557f179969b922793543cab718a45503225993d39fe1cb980fe87a7ba3ab89b64736f6c63430008120033",
  "immutableReferences": {},
  "source": "// SPDX-License-Identifier: MIT\r\npragma solidity >=0.4.0 < 0.9.0;\r\n\r\nimport './ERC721.sol';\r\n\r\ncontract ERC721Enumerable is ERC721 {\r\n\r\n    uint256[] private _allTokens;\r\n\r\n    // indexing _allTokens\r\n    mapping(uint256 => uint256) private _allTokensIndex;\r\n    \r\n    // mapping owner : [token1, token2 ...]\r\n    mapping(address => uint256[]) private _ownedTokens;\r\n    \r\n    // indexing _ownedTokens : tokenId1 : 0, tokenId2 : 1...\r\n    mapping(uint256 => uint256) private _ownedTokensIndex;\r\n\r\n    function _mint(address to, uint256 tokenId) internal override(ERC721) {\r\n        super._mint(to, tokenId);\r\n        // use super to get ERC721.sol => _mint function\r\n\r\n         _addTokensToAllTokensEnumeration(tokenId);\r\n         _addTokensToOwnerTokensEnumeration(to, tokenId);\r\n         // KryptoDog's tokenId -> Enu's _mint -> _addTokensToAllTokensEnumeration -> _allTokens\r\n    }\r\n\r\n    // totalSupply : _alltokens array length\r\n    function totalSupply() public view returns(uint256) {\r\n        return _allTokens.length;\r\n    }\r\n\r\n    // get tokenId from all token. Input index\r\n    function tokenByIndex(uint256 _index) public view returns(uint256) {\r\n        require(_index < totalSupply(),'global index is out of bounds.');\r\n        return _allTokens[_index];\r\n    }\r\n\r\n    // get owner's tokenId. Input index\r\n    function tokenOfOwnerByIndex(address _owner, uint256 _index) public view returns(uint256) {\r\n        require(_index < balanceOf(_owner),'owner index is out of bounds.');\r\n        // _ownedTokensIndex.length is fine, balanceOf from ERC721.sol\r\n        return _ownedTokens[_owner][_index];\r\n    }\r\n\r\n    // all tokens : push tokenId and set the index by length\r\n    function _addTokensToAllTokensEnumeration(uint256 tokenId) private {\r\n        _allTokens.push(tokenId);\r\n        _allTokensIndex[tokenId] = _allTokens.length -1;\r\n        // tokenId : length (tokenId's length => index) start with 0(1-1)\r\n    }\r\n\r\n    // owner tokens : set the position of tokenId and push it to owner mapping\r\n    function _addTokensToOwnerTokensEnumeration(address to, uint256 tokenId) private {\r\n        _ownedTokensIndex[tokenId] = _ownedTokens[to].length;\r\n        // tokenId : length (address => tokenId[]'s length => index) start with 0\r\n        \r\n        _ownedTokens[to].push(tokenId);\r\n    }\r\n}",
  "sourcePath": "C:\\Users\\hyean\\Desktop\\NFT-market-website\\src\\contracts\\ERC721Enumerable.sol",
  "compiler": {
    "name": "solc",
    "version": "0.8.18+commit.87f61d96.Emscripten.clang"
  },
  "schemaVersion": "3.4.11",
  "updatedAt": "2023-02-07T11:26:54.593Z",
  "devdoc": {
    "kind": "dev",
    "methods": {
      "supportsInterface(bytes4)": {
        "details": "Interface identification is specified in ERC-165. This function  uses less than 30,000 gas.",
        "params": {
          "interfaceID": "The interface identifier, as specified in ERC-165"
        },
        "returns": {
          "_0": "`true` if the contract implements `interfaceID` and  `interfaceID` is not 0xffffffff, `false` otherwise"
        }
      },
      "transferFrom(address,address,uint256)": {
        "details": "This works identically to the other function with an extra data parameter,  except this function just sets data to \"\".",
        "params": {
          "_from": "The current owner of the NFT",
          "_to": "The new owner",
          "_tokenId": "The NFT to transfer"
        }
      }
    },
    "version": 1
  },
  "userdoc": {
    "kind": "user",
    "methods": {
      "supportsInterface(bytes4)": {
        "notice": "Query if a contract implements an interface"
      },
      "transferFrom(address,address,uint256)": {
        "notice": "Transfers the ownership of an NFT from one address to another address"
      }
    },
    "version": 1
  }
}