{
  "contractName": "ERC721Enumerable",
  "abi": [
    {
      "inputs": [],
      "stateMutability": "nonpayable",
      "type": "constructor"
    },
    {
      "anonymous": false,
      "inputs": [
        {
          "indexed": true,
          "internalType": "address",
          "name": "_owner",
          "type": "address"
        },
        {
          "indexed": true,
          "internalType": "address",
          "name": "_approved",
          "type": "address"
        },
        {
          "indexed": true,
          "internalType": "uint256",
          "name": "_tokenId",
          "type": "uint256"
        }
      ],
      "name": "Approval",
      "type": "event"
    },
    {
      "anonymous": false,
      "inputs": [
        {
          "indexed": true,
          "internalType": "address",
          "name": "_from",
          "type": "address"
        },
        {
          "indexed": true,
          "internalType": "address",
          "name": "_to",
          "type": "address"
        },
        {
          "indexed": true,
          "internalType": "uint256",
          "name": "_tokenId",
          "type": "uint256"
        }
      ],
      "name": "Transfer",
      "type": "event"
    },
    {
      "inputs": [
        {
          "internalType": "address",
          "name": "_to",
          "type": "address"
        },
        {
          "internalType": "uint256",
          "name": "_tokenId",
          "type": "uint256"
        }
      ],
      "name": "approve",
      "outputs": [],
      "stateMutability": "nonpayable",
      "type": "function"
    },
    {
      "inputs": [
        {
          "internalType": "address",
          "name": "_owner",
          "type": "address"
        }
      ],
      "name": "balanceOf",
      "outputs": [
        {
          "internalType": "uint256",
          "name": "",
          "type": "uint256"
        }
      ],
      "stateMutability": "view",
      "type": "function"
    },
    {
      "inputs": [
        {
          "internalType": "uint256",
          "name": "_tokenId",
          "type": "uint256"
        }
      ],
      "name": "getApproved",
      "outputs": [
        {
          "internalType": "address",
          "name": "",
          "type": "address"
        }
      ],
      "stateMutability": "view",
      "type": "function"
    },
    {
      "inputs": [
        {
          "internalType": "uint256",
          "name": "_tokenId",
          "type": "uint256"
        }
      ],
      "name": "ownerOf",
      "outputs": [
        {
          "internalType": "address",
          "name": "",
          "type": "address"
        }
      ],
      "stateMutability": "view",
      "type": "function"
    },
    {
      "inputs": [
        {
          "internalType": "bytes4",
          "name": "interfaceID",
          "type": "bytes4"
        }
      ],
      "name": "supportsInterface",
      "outputs": [
        {
          "internalType": "bool",
          "name": "",
          "type": "bool"
        }
      ],
      "stateMutability": "view",
      "type": "function"
    },
    {
      "inputs": [
        {
          "internalType": "address",
          "name": "_from",
          "type": "address"
        },
        {
          "internalType": "address",
          "name": "_to",
          "type": "address"
        },
        {
          "internalType": "uint256",
          "name": "_tokenId",
          "type": "uint256"
        }
      ],
      "name": "transferFrom",
      "outputs": [],
      "stateMutability": "nonpayable",
      "type": "function"
    },
    {
      "inputs": [],
      "name": "totalSupply",
      "outputs": [
        {
          "internalType": "uint256",
          "name": "",
          "type": "uint256"
        }
      ],
      "stateMutability": "view",
      "type": "function"
    },
    {
      "inputs": [
        {
          "internalType": "uint256",
          "name": "_index",
          "type": "uint256"
        }
      ],
      "name": "tokenByIndex",
      "outputs": [
        {
          "internalType": "uint256",
          "name": "",
          "type": "uint256"
        }
      ],
      "stateMutability": "view",
      "type": "function"
    },
    {
      "inputs": [
        {
          "internalType": "address",
          "name": "_owner",
          "type": "address"
        },
        {
          "internalType": "uint256",
          "name": "_index",
          "type": "uint256"
        }
      ],
      "name": "tokenOfOwnerByIndex",
      "outputs": [
        {
          "internalType": "uint256",
          "name": "",
          "type": "uint256"
        }
      ],
      "stateMutability": "view",
      "type": "function"
    }
  ],
  "bytecode": "0x60806040523480156200001157600080fd5b50620000437f01ffc9a7a5cef8baa21ed3c5c0d7e23accb804b619e9333b597f47a0d84076e26200017760201b60201c565b620000fc7f5af227006b8981efabb10af200ab71f08976cbce54b4c59ae5c97811d19a398c7f8c51fd5fcf1f456ec4eb0f32f68d83471264fe082fac12bcbfd2fa4be9eed6c77f22c82707ba960a14c7592ffb6b8cfaa073fed0048a84cc7fa41f6b5bd8e7f2e47f3a6eb71757dfc6e784c1459d26270140c2c147d95ca985c80026fc5301c3eca17f8a7e378434598edc36d108689a030cbc9d7d465de4f74c71bae1028eed6a881b181818186200017760201b60201c565b620001717f8230223f691b981717299fae9549350a0d894555723531f02108b1f522c1a7977f6da5e1284143cdd2d15038a59bde3be031250f00291d64494c12d967b3a4e0c37fc53637662700e6c65104059db8bba34439e0c32483ab7c34e3ccae52c739549518186200017760201b60201c565b620002d1565b63ffffffff60e01b817bffffffffffffffffffffffffffffffffffffffffffffffffffffffff191603620001e2576040517f08c379a0000000000000000000000000000000000000000000000000000000008152600401620001d990620002af565b60405180910390fd5b6001600080837bffffffffffffffffffffffffffffffffffffffffffffffffffffffff19167bffffffffffffffffffffffffffffffffffffffffffffffffffffffff1916815260200190815260200160002060006101000a81548160ff02191690831515021790555050565b600082825260208201905092915050565b7f696e76616c696420696e74657266616365207265717565737473000000000000600082015250565b600062000297601a836200024e565b9150620002a4826200025f565b602082019050919050565b60006020820190508181036000830152620002ca8162000288565b9050919050565b61132880620002e16000396000f3fe608060405234801561001057600080fd5b50600436106100935760003560e01c806323b872dd1161006657806323b872dd146101325780632f745c591461014e5780634f6ccce71461017e5780636352211e146101ae57806370a08231146101de57610093565b806301ffc9a714610098578063081812fc146100c8578063095ea7b3146100f857806318160ddd14610114575b600080fd5b6100b260048036038101906100ad9190610bf1565b61020e565b6040516100bf9190610c39565b60405180910390f35b6100e260048036038101906100dd9190610c8a565b610275565b6040516100ef9190610cf8565b60405180910390f35b610112600480360381019061010d9190610d3f565b6102fa565b005b61011c610495565b6040516101299190610d8e565b60405180910390f35b61014c60048036038101906101479190610da9565b6104a2565b005b61016860048036038101906101639190610d3f565b6104c5565b6040516101759190610d8e565b60405180910390f35b61019860048036038101906101939190610c8a565b610575565b6040516101a59190610d8e565b60405180910390f35b6101c860048036038101906101c39190610c8a565b6105e6565b6040516101d59190610cf8565b60405180910390f35b6101f860048036038101906101f39190610dfc565b6106c4565b6040516102059190610d8e565b60405180910390f35b6000806000837bffffffffffffffffffffffffffffffffffffffffffffffffffffffff19167bffffffffffffffffffffffffffffffffffffffffffffffffffffffff1916815260200190815260200160002060009054906101000a900460ff169050919050565b600061028082610782565b6102bf576040517f08c379a00000000000000000000000000000000000000000000000000000000081526004016102b690610e86565b60405180910390fd5b6003600083815260200190815260200160002060009054906101000a900473ffffffffffffffffffffffffffffffffffffffff169050919050565b6000610305826105e6565b90508073ffffffffffffffffffffffffffffffffffffffff168373ffffffffffffffffffffffffffffffffffffffff1603610375576040517f08c379a000000000000000000000000000000000000000000000000000000000815260040161036c90610ef2565b60405180910390fd5b8073ffffffffffffffffffffffffffffffffffffffff163373ffffffffffffffffffffffffffffffffffffffff16146103e3576040517f08c379a00000000000000000000000000000000000000000000000000000000081526004016103da90610f5e565b60405180910390fd5b826003600084815260200190815260200160002060006101000a81548173ffffffffffffffffffffffffffffffffffffffff021916908373ffffffffffffffffffffffffffffffffffffffff160217905550818373ffffffffffffffffffffffffffffffffffffffff168273ffffffffffffffffffffffffffffffffffffffff167f8c5be1e5ebec7d5bd14f71427d1e84f3dd0314c0f7b2291e5b200ac8c7c3b92560405160405180910390a4505050565b6000600480549050905090565b6104ac33826107f4565b6104b557600080fd5b6104c08383836108c1565b505050565b60006104d0836106c4565b8210610511576040517f08c379a000000000000000000000000000000000000000000000000000000000815260040161050890610fca565b60405180910390fd5b600660008473ffffffffffffffffffffffffffffffffffffffff1673ffffffffffffffffffffffffffffffffffffffff168152602001908152602001600020828154811061056257610561610fea565b5b9060005260206000200154905092915050565b600061057f610495565b82106105c0576040517f08c379a00000000000000000000000000000000000000000000000000000000081526004016105b790611065565b60405180910390fd5b600482815481106105d4576105d3610fea565b5b90600052602060002001549050919050565b60008073ffffffffffffffffffffffffffffffffffffffff166001600084815260200190815260200160002060009054906101000a900473ffffffffffffffffffffffffffffffffffffffff1673ffffffffffffffffffffffffffffffffffffffff1603610689576040517f08c379a0000000000000000000000000000000000000000000000000000000008152600401610680906110f7565b60405180910390fd5b6001600083815260200190815260200160002060009054906101000a900473ffffffffffffffffffffffffffffffffffffffff169050919050565b60008073ffffffffffffffffffffffffffffffffffffffff168273ffffffffffffffffffffffffffffffffffffffff1603610734576040517f08c379a000000000000000000000000000000000000000000000000000000000815260040161072b906110f7565b60405180910390fd5b61077b600260008473ffffffffffffffffffffffffffffffffffffffff1673ffffffffffffffffffffffffffffffffffffffff168152602001908152602001600020610ae6565b9050919050565b6000806001600084815260200190815260200160002060009054906101000a900473ffffffffffffffffffffffffffffffffffffffff169050600073ffffffffffffffffffffffffffffffffffffffff168173ffffffffffffffffffffffffffffffffffffffff161415915050919050565b60006107ff82610782565b61083e576040517f08c379a000000000000000000000000000000000000000000000000000000000815260040161083590610e86565b60405180910390fd5b6000610849836105e6565b90508073ffffffffffffffffffffffffffffffffffffffff168473ffffffffffffffffffffffffffffffffffffffff1614806108b857508373ffffffffffffffffffffffffffffffffffffffff166108a084610275565b73ffffffffffffffffffffffffffffffffffffffff16145b91505092915050565b8273ffffffffffffffffffffffffffffffffffffffff166108e1826105e6565b73ffffffffffffffffffffffffffffffffffffffff1614610937576040517f08c379a000000000000000000000000000000000000000000000000000000000815260040161092e90611163565b60405180910390fd5b600073ffffffffffffffffffffffffffffffffffffffff168273ffffffffffffffffffffffffffffffffffffffff16036109a6576040517f08c379a000000000000000000000000000000000000000000000000000000000815260040161099d906111cf565b60405180910390fd5b6109ed600260008573ffffffffffffffffffffffffffffffffffffffff1673ffffffffffffffffffffffffffffffffffffffff168152602001908152602001600020610af4565b610a34600260008473ffffffffffffffffffffffffffffffffffffffff1673ffffffffffffffffffffffffffffffffffffffff168152602001908152602001600020610b17565b816001600083815260200190815260200160002060006101000a81548173ffffffffffffffffffffffffffffffffffffffff021916908373ffffffffffffffffffffffffffffffffffffffff160217905550808273ffffffffffffffffffffffffffffffffffffffff168473ffffffffffffffffffffffffffffffffffffffff167fddf252ad1be2c89b69c2b068fc378daa952ba7f163c4a11628f55a4df523b3ef60405160405180910390a4505050565b600081600001549050919050565b610b0c60018260000154610b3690919063ffffffff16565b816000018190555050565b6001816000016000828254610b2c919061121e565b9250508190555050565b6000808284610b459190611252565b905083811015610b8a576040517f08c379a0000000000000000000000000000000000000000000000000000000008152600401610b81906112d2565b60405180910390fd5b8091505092915050565b600080fd5b60007fffffffff0000000000000000000000000000000000000000000000000000000082169050919050565b610bce81610b99565b8114610bd957600080fd5b50565b600081359050610beb81610bc5565b92915050565b600060208284031215610c0757610c06610b94565b5b6000610c1584828501610bdc565b91505092915050565b60008115159050919050565b610c3381610c1e565b82525050565b6000602082019050610c4e6000830184610c2a565b92915050565b6000819050919050565b610c6781610c54565b8114610c7257600080fd5b50565b600081359050610c8481610c5e565b92915050565b600060208284031215610ca057610c9f610b94565b5b6000610cae84828501610c75565b91505092915050565b600073ffffffffffffffffffffffffffffffffffffffff82169050919050565b6000610ce282610cb7565b9050919050565b610cf281610cd7565b82525050565b6000602082019050610d0d6000830184610ce9565b92915050565b610d1c81610cd7565b8114610d2757600080fd5b50565b600081359050610d3981610d13565b92915050565b60008060408385031215610d5657610d55610b94565b5b6000610d6485828601610d2a565b9250506020610d7585828601610c75565b9150509250929050565b610d8881610c54565b82525050565b6000602082019050610da36000830184610d7f565b92915050565b600080600060608486031215610dc257610dc1610b94565b5b6000610dd086828701610d2a565b9350506020610de186828701610d2a565b9250506040610df286828701610c75565b9150509250925092565b600060208284031215610e1257610e11610b94565b5b6000610e2084828501610d2a565b91505092915050565b600082825260208201905092915050565b7f746f6b656e20646f6573206e6f74206578697374000000000000000000000000600082015250565b6000610e70601483610e29565b9150610e7b82610e3a565b602082019050919050565b60006020820190508181036000830152610e9f81610e63565b9050919050565b7f6f776e65722063616e206e6f742073656e6420746f2073656c66000000000000600082015250565b6000610edc601a83610e29565b9150610ee782610ea6565b602082019050919050565b60006020820190508181036000830152610f0b81610ecf565b9050919050565b7f63757272656e742063616c6c6572206d757374206265206f776e204e46540000600082015250565b6000610f48601e83610e29565b9150610f5382610f12565b602082019050919050565b60006020820190508181036000830152610f7781610f3b565b9050919050565b7f6f776e657220696e646578206973206f7574206f6620626f756e64732e000000600082015250565b6000610fb4601d83610e29565b9150610fbf82610f7e565b602082019050919050565b60006020820190508181036000830152610fe381610fa7565b9050919050565b7f4e487b7100000000000000000000000000000000000000000000000000000000600052603260045260246000fd5b7f676c6f62616c20696e646578206973206f7574206f6620626f756e64732e0000600082015250565b600061104f601e83610e29565b915061105a82611019565b602082019050919050565b6000602082019050818103600083015261107e81611042565b9050919050565b7f455243373231203a206f776e657220717565727920666f72206e6f6e2d65786960008201527f7374656e7420746f6b656e000000000000000000000000000000000000000000602082015250565b60006110e1602b83610e29565b91506110ec82611085565b604082019050919050565b60006020820190508181036000830152611110816110d4565b9050919050565b7f455243373231203a204e6f7420746865206f776e657200000000000000000000600082015250565b600061114d601683610e29565b915061115882611117565b602082019050919050565b6000602082019050818103600083015261117c81611140565b9050919050565b7f455243373231203a20696e76616c696420616464726573730000000000000000600082015250565b60006111b9601883610e29565b91506111c482611183565b602082019050919050565b600060208201905081810360008301526111e8816111ac565b9050919050565b7f4e487b7100000000000000000000000000000000000000000000000000000000600052601160045260246000fd5b600061122982610c54565b915061123483610c54565b925082820190508082111561124c5761124b6111ef565b5b92915050565b600061125d82610c54565b915061126883610c54565b92508282039050818111156112805761127f6111ef565b5b92915050565b7f535542204f564552464c4f572045524f52520000000000000000000000000000600082015250565b60006112bc601283610e29565b91506112c782611286565b602082019050919050565b600060208201905081810360008301526112eb816112af565b905091905056fea2646970667358221220addfdc68b84c08f5d6e6d174559c4a350793a9295de71b592fad1c3c876e6bac64736f6c63430008120033",
  "immutableReferences": {},
  "source": "// SPDX-License-Identifier: MIT\r\npragma solidity >=0.4.0 < 0.9.0;\r\n\r\nimport './ERC721.sol';\r\nimport './interfaces/IERC721Enumerable.sol';\r\n\r\n\r\n\r\ncontract ERC721Enumerable is ERC721, IERC721Enumerable {\r\n\r\n    constructor() {\r\n        _registerInterface(bytes4(\r\n            keccak256('totalSupply(bytes4)')^\r\n            keccak256('tokenByIndex(bytes4)')^\r\n            keccak256('tokenOfOwnerByIndex(bytes4)')\r\n        ));\r\n    }\r\n\r\n    uint256[] private _allTokens;\r\n\r\n    // indexing _allTokens\r\n    mapping(uint256 => uint256) private _allTokensIndex;\r\n    \r\n    // mapping owner : [token1, token2 ...]\r\n    mapping(address => uint256[]) private _ownedTokens;\r\n    \r\n    // indexing _ownedTokens : tokenId1 : 0, tokenId2 : 1...\r\n    mapping(uint256 => uint256) private _ownedTokensIndex;\r\n\r\n    function _mint(address to, uint256 tokenId) internal override (ERC721) {\r\n        super._mint(to, tokenId);\r\n        // use super to get ERC721.sol => _mint function\r\n\r\n         _addTokensToAllTokensEnumeration(tokenId);\r\n         _addTokensToOwnerTokensEnumeration(to, tokenId);\r\n         // KryptoDog's tokenId -> Enu's _mint -> _addTokensToAllTokensEnumeration -> _allTokens\r\n    }\r\n\r\n    // totalSupply : _alltokens array length\r\n    function totalSupply() public override view returns(uint256) {\r\n        return _allTokens.length;\r\n    }\r\n\r\n    // get tokenId from all token. Input index\r\n    function tokenByIndex(uint256 _index) public override view returns(uint256) {\r\n        require(_index < totalSupply(),'global index is out of bounds.');\r\n        return _allTokens[_index];\r\n    }\r\n\r\n    // get owner's tokenId. Input index\r\n    function tokenOfOwnerByIndex(address _owner, uint256 _index) public override view returns(uint256) {\r\n        require(_index < balanceOf(_owner),'owner index is out of bounds.');\r\n        // _ownedTokensIndex.length is fine, balanceOf from ERC721.sol\r\n        return _ownedTokens[_owner][_index];\r\n    }\r\n\r\n    // all tokens : push tokenId and set the index by length\r\n    function _addTokensToAllTokensEnumeration(uint256 tokenId) private {\r\n        _allTokens.push(tokenId);\r\n        _allTokensIndex[tokenId] = _allTokens.length -1;\r\n        // tokenId : length (tokenId's length => index) start with 0(1-1)\r\n    }\r\n\r\n    // owner tokens : set the position of tokenId and push it to owner mapping\r\n    function _addTokensToOwnerTokensEnumeration(address to, uint256 tokenId) private {\r\n        _ownedTokensIndex[tokenId] = _ownedTokens[to].length;\r\n        // tokenId : length (address => tokenId[]'s length => index) start with 0\r\n        \r\n        _ownedTokens[to].push(tokenId);\r\n    }\r\n}",
  "sourcePath": "C:\\Users\\hyean\\Desktop\\NFT-market-web\\src\\contracts\\ERC721Enumerable.sol",
  "compiler": {
    "name": "solc",
    "version": "0.8.18+commit.87f61d96.Emscripten.clang"
  },
  "schemaVersion": "3.4.11",
  "updatedAt": "2023-02-21T08:09:08.598Z",
  "devdoc": {
    "kind": "dev",
    "methods": {
      "supportsInterface(bytes4)": {
        "details": "Interface identification is specified in ERC-165. This function  uses less than 30,000 gas.",
        "params": {
          "interfaceID": "The interface identifier, as specified in ERC-165"
        },
        "returns": {
          "_0": "`true` if the contract implements `interfaceID` and  `interfaceID` is not 0xffffffff, `false` otherwise"
        }
      }
    },
    "version": 1
  },
  "userdoc": {
    "kind": "user",
    "methods": {
      "supportsInterface(bytes4)": {
        "notice": "Query if a contract implements an interface"
      }
    },
    "version": 1
  }
}