{
  "contractName": "KryptoDog",
  "abi": [
    {
      "inputs": [],
      "stateMutability": "nonpayable",
      "type": "constructor"
    },
    {
      "anonymous": false,
      "inputs": [
        {
          "indexed": true,
          "internalType": "address",
          "name": "_owner",
          "type": "address"
        },
        {
          "indexed": true,
          "internalType": "address",
          "name": "_approved",
          "type": "address"
        },
        {
          "indexed": true,
          "internalType": "uint256",
          "name": "_tokenId",
          "type": "uint256"
        }
      ],
      "name": "Approval",
      "type": "event"
    },
    {
      "anonymous": false,
      "inputs": [
        {
          "indexed": true,
          "internalType": "address",
          "name": "_from",
          "type": "address"
        },
        {
          "indexed": true,
          "internalType": "address",
          "name": "_to",
          "type": "address"
        },
        {
          "indexed": true,
          "internalType": "uint256",
          "name": "_tokenId",
          "type": "uint256"
        }
      ],
      "name": "Transfer",
      "type": "event"
    },
    {
      "inputs": [
        {
          "internalType": "address",
          "name": "_to",
          "type": "address"
        },
        {
          "internalType": "uint256",
          "name": "_tokenId",
          "type": "uint256"
        }
      ],
      "name": "approve",
      "outputs": [],
      "stateMutability": "nonpayable",
      "type": "function"
    },
    {
      "inputs": [
        {
          "internalType": "address",
          "name": "_owner",
          "type": "address"
        }
      ],
      "name": "balanceOf",
      "outputs": [
        {
          "internalType": "uint256",
          "name": "",
          "type": "uint256"
        }
      ],
      "stateMutability": "view",
      "type": "function",
      "constant": true
    },
    {
      "inputs": [
        {
          "internalType": "uint256",
          "name": "_tokenId",
          "type": "uint256"
        }
      ],
      "name": "getApproved",
      "outputs": [
        {
          "internalType": "address",
          "name": "",
          "type": "address"
        }
      ],
      "stateMutability": "view",
      "type": "function",
      "constant": true
    },
    {
      "inputs": [
        {
          "internalType": "uint256",
          "name": "",
          "type": "uint256"
        }
      ],
      "name": "kryptoDogz",
      "outputs": [
        {
          "internalType": "string",
          "name": "",
          "type": "string"
        }
      ],
      "stateMutability": "view",
      "type": "function",
      "constant": true
    },
    {
      "inputs": [],
      "name": "name",
      "outputs": [
        {
          "internalType": "string",
          "name": "",
          "type": "string"
        }
      ],
      "stateMutability": "view",
      "type": "function",
      "constant": true
    },
    {
      "inputs": [
        {
          "internalType": "uint256",
          "name": "_tokenId",
          "type": "uint256"
        }
      ],
      "name": "ownerOf",
      "outputs": [
        {
          "internalType": "address",
          "name": "",
          "type": "address"
        }
      ],
      "stateMutability": "view",
      "type": "function",
      "constant": true
    },
    {
      "inputs": [
        {
          "internalType": "bytes4",
          "name": "interfaceID",
          "type": "bytes4"
        }
      ],
      "name": "supportsInterface",
      "outputs": [
        {
          "internalType": "bool",
          "name": "",
          "type": "bool"
        }
      ],
      "stateMutability": "view",
      "type": "function",
      "constant": true
    },
    {
      "inputs": [],
      "name": "symbol",
      "outputs": [
        {
          "internalType": "string",
          "name": "",
          "type": "string"
        }
      ],
      "stateMutability": "view",
      "type": "function",
      "constant": true
    },
    {
      "inputs": [
        {
          "internalType": "uint256",
          "name": "_index",
          "type": "uint256"
        }
      ],
      "name": "tokenByIndex",
      "outputs": [
        {
          "internalType": "uint256",
          "name": "",
          "type": "uint256"
        }
      ],
      "stateMutability": "view",
      "type": "function",
      "constant": true
    },
    {
      "inputs": [
        {
          "internalType": "address",
          "name": "_owner",
          "type": "address"
        },
        {
          "internalType": "uint256",
          "name": "_index",
          "type": "uint256"
        }
      ],
      "name": "tokenOfOwnerByIndex",
      "outputs": [
        {
          "internalType": "uint256",
          "name": "",
          "type": "uint256"
        }
      ],
      "stateMutability": "view",
      "type": "function",
      "constant": true
    },
    {
      "inputs": [],
      "name": "totalSupply",
      "outputs": [
        {
          "internalType": "uint256",
          "name": "",
          "type": "uint256"
        }
      ],
      "stateMutability": "view",
      "type": "function",
      "constant": true
    },
    {
      "inputs": [
        {
          "internalType": "address",
          "name": "_from",
          "type": "address"
        },
        {
          "internalType": "address",
          "name": "_to",
          "type": "address"
        },
        {
          "internalType": "uint256",
          "name": "_tokenId",
          "type": "uint256"
        }
      ],
      "name": "transferFrom",
      "outputs": [],
      "stateMutability": "nonpayable",
      "type": "function"
    },
    {
      "inputs": [
        {
          "internalType": "string",
          "name": "_kryptoDog",
          "type": "string"
        }
      ],
      "name": "mint",
      "outputs": [],
      "stateMutability": "nonpayable",
      "type": "function"
    }
  ],
  "bytecode": "0x60806040523480156200001157600080fd5b506040518060400160405280600981526020017f4b727970746f446f6700000000000000000000000000000000000000000000008152506040518060400160405280600581526020017f4b444f475a0000000000000000000000000000000000000000000000000000008152508181816000908162000091919062000431565b508060019081620000a3919062000431565b505050620000d77f01ffc9a7a5cef8baa21ed3c5c0d7e23accb804b619e9333b597f47a0d84076e2620000df60201b60201c565b50506200059b565b63ffffffff60e01b817bffffffffffffffffffffffffffffffffffffffffffffffffffffffff1916036200014a576040517f08c379a0000000000000000000000000000000000000000000000000000000008152600401620001419062000579565b60405180910390fd5b600160026000837bffffffffffffffffffffffffffffffffffffffffffffffffffffffff19167bffffffffffffffffffffffffffffffffffffffffffffffffffffffff1916815260200190815260200160002060006101000a81548160ff02191690831515021790555050565b600081519050919050565b7f4e487b7100000000000000000000000000000000000000000000000000000000600052604160045260246000fd5b7f4e487b7100000000000000000000000000000000000000000000000000000000600052602260045260246000fd5b600060028204905060018216806200023957607f821691505b6020821081036200024f576200024e620001f1565b5b50919050565b60008190508160005260206000209050919050565b60006020601f8301049050919050565b600082821b905092915050565b600060088302620002b97fffffffffffffffffffffffffffffffffffffffffffffffffffffffffffffffff826200027a565b620002c586836200027a565b95508019841693508086168417925050509392505050565b6000819050919050565b6000819050919050565b6000620003126200030c6200030684620002dd565b620002e7565b620002dd565b9050919050565b6000819050919050565b6200032e83620002f1565b620003466200033d8262000319565b84845462000287565b825550505050565b600090565b6200035d6200034e565b6200036a81848462000323565b505050565b5b8181101562000392576200038660008262000353565b60018101905062000370565b5050565b601f821115620003e157620003ab8162000255565b620003b6846200026a565b81016020851015620003c6578190505b620003de620003d5856200026a565b8301826200036f565b50505b505050565b600082821c905092915050565b60006200040660001984600802620003e6565b1980831691505092915050565b6000620004218383620003f3565b9150826002028217905092915050565b6200043c82620001b7565b67ffffffffffffffff811115620004585762000457620001c2565b5b62000464825462000220565b6200047182828562000396565b600060209050601f831160018114620004a9576000841562000494578287015190505b620004a0858262000413565b86555062000510565b601f198416620004b98662000255565b60005b82811015620004e357848901518255600182019150602085019450602081019050620004bc565b86831015620005035784890151620004ff601f891682620003f3565b8355505b6001600288020188555050505b505050505050565b600082825260208201905092915050565b7f696e76616c696420696e74657266616365207265717565737473000000000000600082015250565b600062000561601a8362000518565b91506200056e8262000529565b602082019050919050565b60006020820190508181036000830152620005948162000552565b9050919050565b611f6280620005ab6000396000f3fe608060405234801561001057600080fd5b50600436106100cf5760003560e01c80632f745c591161008c5780636352211e116100665780636352211e1461023857806370a082311461026857806395d89b4114610298578063d85d3d27146102b6576100cf565b80632f745c59146101a85780634f6ccce7146101d85780635ecad60514610208576100cf565b806301ffc9a7146100d457806306fdde0314610104578063081812fc14610122578063095ea7b31461015257806318160ddd1461016e57806323b872dd1461018c575b600080fd5b6100ee60048036038101906100e99190611203565b6102d2565b6040516100fb919061124b565b60405180910390f35b61010c61033a565b60405161011991906112f6565b60405180910390f35b61013c6004803603810190610137919061134e565b6103cc565b60405161014991906113bc565b60405180910390f35b61016c60048036038101906101679190611403565b610451565b005b6101766105ec565b6040516101839190611452565b60405180910390f35b6101a660048036038101906101a1919061146d565b6105f9565b005b6101c260048036038101906101bd9190611403565b61061c565b6040516101cf9190611452565b60405180910390f35b6101f260048036038101906101ed919061134e565b6106cc565b6040516101ff9190611452565b60405180910390f35b610222600480360381019061021d919061134e565b61073d565b60405161022f91906112f6565b60405180910390f35b610252600480360381019061024d919061134e565b6107e9565b60405161025f91906113bc565b60405180910390f35b610282600480360381019061027d91906114c0565b6108c7565b60405161028f9190611452565b60405180910390f35b6102a061097e565b6040516102ad91906112f6565b60405180910390f35b6102d060048036038101906102cb9190611622565b610a10565b005b600060026000837bffffffffffffffffffffffffffffffffffffffffffffffffffffffff19167bffffffffffffffffffffffffffffffffffffffffffffffffffffffff1916815260200190815260200160002060009054906101000a900460ff169050919050565b6060600080546103499061169a565b80601f01602080910402602001604051908101604052809291908181526020018280546103759061169a565b80156103c25780601f10610397576101008083540402835291602001916103c2565b820191906000526020600020905b8154815290600101906020018083116103a557829003601f168201915b5050505050905090565b60006103d782610b12565b610416576040517f08c379a000000000000000000000000000000000000000000000000000000000815260040161040d90611717565b60405180910390fd5b6005600083815260200190815260200160002060009054906101000a900473ffffffffffffffffffffffffffffffffffffffff169050919050565b600061045c826107e9565b90508073ffffffffffffffffffffffffffffffffffffffff168373ffffffffffffffffffffffffffffffffffffffff16036104cc576040517f08c379a00000000000000000000000000000000000000000000000000000000081526004016104c390611783565b60405180910390fd5b8073ffffffffffffffffffffffffffffffffffffffff163373ffffffffffffffffffffffffffffffffffffffff161461053a576040517f08c379a0000000000000000000000000000000000000000000000000000000008152600401610531906117ef565b60405180910390fd5b826005600084815260200190815260200160002060006101000a81548173ffffffffffffffffffffffffffffffffffffffff021916908373ffffffffffffffffffffffffffffffffffffffff160217905550818373ffffffffffffffffffffffffffffffffffffffff168273ffffffffffffffffffffffffffffffffffffffff167f8c5be1e5ebec7d5bd14f71427d1e84f3dd0314c0f7b2291e5b200ac8c7c3b92560405160405180910390a4505050565b6000600680549050905090565b6106033382610b84565b61060c57600080fd5b610617838383610c51565b505050565b6000610627836108c7565b8210610668576040517f08c379a000000000000000000000000000000000000000000000000000000000815260040161065f9061185b565b60405180910390fd5b600860008473ffffffffffffffffffffffffffffffffffffffff1673ffffffffffffffffffffffffffffffffffffffff16815260200190815260200160002082815481106106b9576106b861187b565b5b9060005260206000200154905092915050565b60006106d66105ec565b8210610717576040517f08c379a000000000000000000000000000000000000000000000000000000000815260040161070e906118f6565b60405180910390fd5b6006828154811061072b5761072a61187b565b5b90600052602060002001549050919050565b600a818154811061074d57600080fd5b9060005260206000200160009150905080546107689061169a565b80601f01602080910402602001604051908101604052809291908181526020018280546107949061169a565b80156107e15780601f106107b6576101008083540402835291602001916107e1565b820191906000526020600020905b8154815290600101906020018083116107c457829003601f168201915b505050505081565b60008073ffffffffffffffffffffffffffffffffffffffff166003600084815260200190815260200160002060009054906101000a900473ffffffffffffffffffffffffffffffffffffffff1673ffffffffffffffffffffffffffffffffffffffff160361088c576040517f08c379a000000000000000000000000000000000000000000000000000000000815260040161088390611988565b60405180910390fd5b6003600083815260200190815260200160002060009054906101000a900473ffffffffffffffffffffffffffffffffffffffff169050919050565b60008073ffffffffffffffffffffffffffffffffffffffff168273ffffffffffffffffffffffffffffffffffffffff1603610937576040517f08c379a000000000000000000000000000000000000000000000000000000000815260040161092e90611988565b60405180910390fd5b600460008373ffffffffffffffffffffffffffffffffffffffff1673ffffffffffffffffffffffffffffffffffffffff168152602001908152602001600020549050919050565b60606001805461098d9061169a565b80601f01602080910402602001604051908101604052809291908181526020018280546109b99061169a565b8015610a065780601f106109db57610100808354040283529160200191610a06565b820191906000526020600020905b8154815290600101906020018083116109e957829003601f168201915b5050505050905090565b60001515600b82604051610a2491906119e4565b908152602001604051809103902060009054906101000a900460ff16151514610a82576040517f08c379a0000000000000000000000000000000000000000000000000000000008152600401610a7990611a47565b60405180910390fd5b600a81908060018154018082558091505060019003906000526020600020016000909190919091509081610ab69190611c13565b5060006001600a80549050610acb9190611d14565b9050610ad73382610e96565b6001600b83604051610ae991906119e4565b908152602001604051809103902060006101000a81548160ff0219169083151502179055505050565b6000806003600084815260200190815260200160002060009054906101000a900473ffffffffffffffffffffffffffffffffffffffff169050600073ffffffffffffffffffffffffffffffffffffffff168173ffffffffffffffffffffffffffffffffffffffff161415915050919050565b6000610b8f82610b12565b610bce576040517f08c379a0000000000000000000000000000000000000000000000000000000008152600401610bc590611717565b60405180910390fd5b6000610bd9836107e9565b90508073ffffffffffffffffffffffffffffffffffffffff168473ffffffffffffffffffffffffffffffffffffffff161480610c4857508373ffffffffffffffffffffffffffffffffffffffff16610c30846103cc565b73ffffffffffffffffffffffffffffffffffffffff16145b91505092915050565b8273ffffffffffffffffffffffffffffffffffffffff16610c71826107e9565b73ffffffffffffffffffffffffffffffffffffffff1614610cc7576040517f08c379a0000000000000000000000000000000000000000000000000000000008152600401610cbe90611d94565b60405180910390fd5b600073ffffffffffffffffffffffffffffffffffffffff168273ffffffffffffffffffffffffffffffffffffffff1603610d36576040517f08c379a0000000000000000000000000000000000000000000000000000000008152600401610d2d90611e00565b60405180910390fd5b6001600460008573ffffffffffffffffffffffffffffffffffffffff1673ffffffffffffffffffffffffffffffffffffffff1681526020019081526020016000206000828254610d869190611d14565b925050819055506001600460008473ffffffffffffffffffffffffffffffffffffffff1673ffffffffffffffffffffffffffffffffffffffff1681526020019081526020016000206000828254610ddd9190611e20565b92505081905550816003600083815260200190815260200160002060006101000a81548173ffffffffffffffffffffffffffffffffffffffff021916908373ffffffffffffffffffffffffffffffffffffffff160217905550808273ffffffffffffffffffffffffffffffffffffffff168473ffffffffffffffffffffffffffffffffffffffff167fddf252ad1be2c89b69c2b068fc378daa952ba7f163c4a11628f55a4df523b3ef60405160405180910390a4505050565b610ea08282610eb7565b610ea98161107e565b610eb382826110d3565b5050565b600073ffffffffffffffffffffffffffffffffffffffff168273ffffffffffffffffffffffffffffffffffffffff1603610f26576040517f08c379a0000000000000000000000000000000000000000000000000000000008152600401610f1d90611ea0565b60405180910390fd5b60001515610f3382610b12565b151514610f75576040517f08c379a0000000000000000000000000000000000000000000000000000000008152600401610f6c90611f0c565b60405180910390fd5b816003600083815260200190815260200160002060006101000a81548173ffffffffffffffffffffffffffffffffffffffff021916908373ffffffffffffffffffffffffffffffffffffffff1602179055506001600460008473ffffffffffffffffffffffffffffffffffffffff1673ffffffffffffffffffffffffffffffffffffffff16815260200190815260200160002060008282546110179190611e20565b92505081905550808273ffffffffffffffffffffffffffffffffffffffff16600073ffffffffffffffffffffffffffffffffffffffff167fddf252ad1be2c89b69c2b068fc378daa952ba7f163c4a11628f55a4df523b3ef60405160405180910390a45050565b600681908060018154018082558091505060019003906000526020600020016000909190919091505560016006805490506110b99190611d14565b600760008381526020019081526020016000208190555050565b600860008373ffffffffffffffffffffffffffffffffffffffff1673ffffffffffffffffffffffffffffffffffffffff168152602001908152602001600020805490506009600083815260200190815260200160002081905550600860008373ffffffffffffffffffffffffffffffffffffffff1673ffffffffffffffffffffffffffffffffffffffff1681526020019081526020016000208190806001815401808255809150506001900390600052602060002001600090919091909150555050565b6000604051905090565b600080fd5b600080fd5b60007fffffffff0000000000000000000000000000000000000000000000000000000082169050919050565b6111e0816111ab565b81146111eb57600080fd5b50565b6000813590506111fd816111d7565b92915050565b600060208284031215611219576112186111a1565b5b6000611227848285016111ee565b91505092915050565b60008115159050919050565b61124581611230565b82525050565b6000602082019050611260600083018461123c565b92915050565b600081519050919050565b600082825260208201905092915050565b60005b838110156112a0578082015181840152602081019050611285565b60008484015250505050565b6000601f19601f8301169050919050565b60006112c882611266565b6112d28185611271565b93506112e2818560208601611282565b6112eb816112ac565b840191505092915050565b6000602082019050818103600083015261131081846112bd565b905092915050565b6000819050919050565b61132b81611318565b811461133657600080fd5b50565b60008135905061134881611322565b92915050565b600060208284031215611364576113636111a1565b5b600061137284828501611339565b91505092915050565b600073ffffffffffffffffffffffffffffffffffffffff82169050919050565b60006113a68261137b565b9050919050565b6113b68161139b565b82525050565b60006020820190506113d160008301846113ad565b92915050565b6113e08161139b565b81146113eb57600080fd5b50565b6000813590506113fd816113d7565b92915050565b6000806040838503121561141a576114196111a1565b5b6000611428858286016113ee565b925050602061143985828601611339565b9150509250929050565b61144c81611318565b82525050565b60006020820190506114676000830184611443565b92915050565b600080600060608486031215611486576114856111a1565b5b6000611494868287016113ee565b93505060206114a5868287016113ee565b92505060406114b686828701611339565b9150509250925092565b6000602082840312156114d6576114d56111a1565b5b60006114e4848285016113ee565b91505092915050565b600080fd5b600080fd5b7f4e487b7100000000000000000000000000000000000000000000000000000000600052604160045260246000fd5b61152f826112ac565b810181811067ffffffffffffffff8211171561154e5761154d6114f7565b5b80604052505050565b6000611561611197565b905061156d8282611526565b919050565b600067ffffffffffffffff82111561158d5761158c6114f7565b5b611596826112ac565b9050602081019050919050565b82818337600083830152505050565b60006115c56115c084611572565b611557565b9050828152602081018484840111156115e1576115e06114f2565b5b6115ec8482856115a3565b509392505050565b600082601f830112611609576116086114ed565b5b81356116198482602086016115b2565b91505092915050565b600060208284031215611638576116376111a1565b5b600082013567ffffffffffffffff811115611656576116556111a6565b5b611662848285016115f4565b91505092915050565b7f4e487b7100000000000000000000000000000000000000000000000000000000600052602260045260246000fd5b600060028204905060018216806116b257607f821691505b6020821081036116c5576116c461166b565b5b50919050565b7f746f6b656e20646f6573206e6f74206578697374000000000000000000000000600082015250565b6000611701601483611271565b915061170c826116cb565b602082019050919050565b60006020820190508181036000830152611730816116f4565b9050919050565b7f6f776e65722063616e206e6f742073656e6420746f2073656c66000000000000600082015250565b600061176d601a83611271565b915061177882611737565b602082019050919050565b6000602082019050818103600083015261179c81611760565b9050919050565b7f63757272656e742063616c6c6572206d757374206265206f776e204e46540000600082015250565b60006117d9601e83611271565b91506117e4826117a3565b602082019050919050565b60006020820190508181036000830152611808816117cc565b9050919050565b7f6f776e657220696e646578206973206f7574206f6620626f756e64732e000000600082015250565b6000611845601d83611271565b91506118508261180f565b602082019050919050565b6000602082019050818103600083015261187481611838565b9050919050565b7f4e487b7100000000000000000000000000000000000000000000000000000000600052603260045260246000fd5b7f676c6f62616c20696e646578206973206f7574206f6620626f756e64732e0000600082015250565b60006118e0601e83611271565b91506118eb826118aa565b602082019050919050565b6000602082019050818103600083015261190f816118d3565b9050919050565b7f455243373231203a206f776e657220717565727920666f72206e6f6e2d65786960008201527f7374656e7420746f6b656e000000000000000000000000000000000000000000602082015250565b6000611972602b83611271565b915061197d82611916565b604082019050919050565b600060208201905081810360008301526119a181611965565b9050919050565b600081905092915050565b60006119be82611266565b6119c881856119a8565b93506119d8818560208601611282565b80840191505092915050565b60006119f082846119b3565b915081905092915050565b7f74686973204e465420697320616c7265616479206d696e746564000000000000600082015250565b6000611a31601a83611271565b9150611a3c826119fb565b602082019050919050565b60006020820190508181036000830152611a6081611a24565b9050919050565b60008190508160005260206000209050919050565b60006020601f8301049050919050565b600082821b905092915050565b600060088302611ac97fffffffffffffffffffffffffffffffffffffffffffffffffffffffffffffffff82611a8c565b611ad38683611a8c565b95508019841693508086168417925050509392505050565b6000819050919050565b6000611b10611b0b611b0684611318565b611aeb565b611318565b9050919050565b6000819050919050565b611b2a83611af5565b611b3e611b3682611b17565b848454611a99565b825550505050565b600090565b611b53611b46565b611b5e818484611b21565b505050565b5b81811015611b8257611b77600082611b4b565b600181019050611b64565b5050565b601f821115611bc757611b9881611a67565b611ba184611a7c565b81016020851015611bb0578190505b611bc4611bbc85611a7c565b830182611b63565b50505b505050565b600082821c905092915050565b6000611bea60001984600802611bcc565b1980831691505092915050565b6000611c038383611bd9565b9150826002028217905092915050565b611c1c82611266565b67ffffffffffffffff811115611c3557611c346114f7565b5b611c3f825461169a565b611c4a828285611b86565b600060209050601f831160018114611c7d5760008415611c6b578287015190505b611c758582611bf7565b865550611cdd565b601f198416611c8b86611a67565b60005b82811015611cb357848901518255600182019150602085019450602081019050611c8e565b86831015611cd05784890151611ccc601f891682611bd9565b8355505b6001600288020188555050505b505050505050565b7f4e487b7100000000000000000000000000000000000000000000000000000000600052601160045260246000fd5b6000611d1f82611318565b9150611d2a83611318565b9250828203905081811115611d4257611d41611ce5565b5b92915050565b7f455243373231203a204e6f7420746865206f776e657200000000000000000000600082015250565b6000611d7e601683611271565b9150611d8982611d48565b602082019050919050565b60006020820190508181036000830152611dad81611d71565b9050919050565b7f455243373231203a20696e76616c696420616464726573730000000000000000600082015250565b6000611dea601883611271565b9150611df582611db4565b602082019050919050565b60006020820190508181036000830152611e1981611ddd565b9050919050565b6000611e2b82611318565b9150611e3683611318565b9250828201905080821115611e4e57611e4d611ce5565b5b92915050565b7f455243373231203a20616464726573732063616e206e6f742062652030000000600082015250565b6000611e8a601d83611271565b9150611e9582611e54565b602082019050919050565b60006020820190508181036000830152611eb981611e7d565b9050919050565b7f455243373231203a20616c7265616479206d696e746564000000000000000000600082015250565b6000611ef6601783611271565b9150611f0182611ec0565b602082019050919050565b60006020820190508181036000830152611f2581611ee9565b905091905056fea2646970667358221220ebd007db56ab91f2cbdf21f3dd7ddd04e92910bb9e8664a46ee7891fe239d21e64736f6c63430008120033",
  "immutableReferences": {},
  "source": "// SPDX-License-Identifier: MIT\r\npragma solidity >=0.4.0 < 0.9.0;\r\n\r\nimport './ERC721Connector.sol';\r\n\r\n// KryptoDogz & Migrations -> truffle-configs.js (setting networks) & migration.js (deploy the contracts) -> deploy on blockchain(test network ganache)\r\n\r\n// kryotpDog values => ERC721Connector arguments\r\ncontract KryptoDog is ERC721Connector {\r\n\r\n    string [] public kryptoDogz;\r\n    // add NFT -> make tokenId with index + msg.sender -> ERC721 _mint -> mapping msg.sender : tokenId\r\n\r\n    mapping(string => bool) _kryptoDogzExists;\r\n\r\n    function mint(string memory _kryptoDog) public {\r\n        \r\n        require(_kryptoDogzExists[_kryptoDog] == false, \"this NFT is already minted\");\r\n\r\n        kryptoDogz.push(_kryptoDog);\r\n        uint _id =  kryptoDogz.length -1;\r\n        /* version over 0.6 push method can not get length, only reference value.\r\n        thus push first and then get length. (-1 for indexing) */\r\n        \r\n        _mint(msg.sender, _id);\r\n\r\n        _kryptoDogzExists[_kryptoDog] = true;\r\n        // track minting history\r\n    }\r\n\r\n    constructor() ERC721Connector('KryptoDog', 'KDOGZ') {}\r\n}\r\n\r\n/* after migration, we can mint our image src truffle console -> kryptoDog.mint('ex) https... / ')\r\nthen emit msg.sender as from, kryptoDog contract address as to and index\r\n */",
  "sourcePath": "C:\\Users\\hyean\\Desktop\\NFT-market-website\\src\\contracts\\KryptoDogz.sol",
  "compiler": {
    "name": "solc",
    "version": "0.8.18+commit.87f61d96.Emscripten.clang"
  },
  "schemaVersion": "3.4.11",
  "updatedAt": "2023-02-07T11:27:07.209Z",
  "networkType": "ethereum",
  "devdoc": {
    "kind": "dev",
    "methods": {
      "supportsInterface(bytes4)": {
        "details": "Interface identification is specified in ERC-165. This function  uses less than 30,000 gas.",
        "params": {
          "interfaceID": "The interface identifier, as specified in ERC-165"
        },
        "returns": {
          "_0": "`true` if the contract implements `interfaceID` and  `interfaceID` is not 0xffffffff, `false` otherwise"
        }
      },
      "transferFrom(address,address,uint256)": {
        "details": "This works identically to the other function with an extra data parameter,  except this function just sets data to \"\".",
        "params": {
          "_from": "The current owner of the NFT",
          "_to": "The new owner",
          "_tokenId": "The NFT to transfer"
        }
      }
    },
    "version": 1
  },
  "userdoc": {
    "kind": "user",
    "methods": {
      "supportsInterface(bytes4)": {
        "notice": "Query if a contract implements an interface"
      },
      "transferFrom(address,address,uint256)": {
        "notice": "Transfers the ownership of an NFT from one address to another address"
      }
    },
    "version": 1
  }
}