{
  "contractName": "KryptoDog",
  "abi": [
    {
      "inputs": [],
      "stateMutability": "nonpayable",
      "type": "constructor"
    },
    {
      "anonymous": false,
      "inputs": [
        {
          "indexed": true,
          "internalType": "address",
          "name": "_owner",
          "type": "address"
        },
        {
          "indexed": true,
          "internalType": "address",
          "name": "_approved",
          "type": "address"
        },
        {
          "indexed": true,
          "internalType": "uint256",
          "name": "_tokenId",
          "type": "uint256"
        }
      ],
      "name": "Approval",
      "type": "event"
    },
    {
      "anonymous": false,
      "inputs": [
        {
          "indexed": true,
          "internalType": "address",
          "name": "_from",
          "type": "address"
        },
        {
          "indexed": true,
          "internalType": "address",
          "name": "_to",
          "type": "address"
        },
        {
          "indexed": true,
          "internalType": "uint256",
          "name": "_tokenId",
          "type": "uint256"
        }
      ],
      "name": "Transfer",
      "type": "event"
    },
    {
      "inputs": [
        {
          "internalType": "address",
          "name": "_to",
          "type": "address"
        },
        {
          "internalType": "uint256",
          "name": "_tokenId",
          "type": "uint256"
        }
      ],
      "name": "approve",
      "outputs": [],
      "stateMutability": "nonpayable",
      "type": "function"
    },
    {
      "inputs": [
        {
          "internalType": "address",
          "name": "_owner",
          "type": "address"
        }
      ],
      "name": "balanceOf",
      "outputs": [
        {
          "internalType": "uint256",
          "name": "",
          "type": "uint256"
        }
      ],
      "stateMutability": "view",
      "type": "function",
      "constant": true
    },
    {
      "inputs": [
        {
          "internalType": "uint256",
          "name": "_tokenId",
          "type": "uint256"
        }
      ],
      "name": "getApproved",
      "outputs": [
        {
          "internalType": "address",
          "name": "",
          "type": "address"
        }
      ],
      "stateMutability": "view",
      "type": "function",
      "constant": true
    },
    {
      "inputs": [
        {
          "internalType": "uint256",
          "name": "",
          "type": "uint256"
        }
      ],
      "name": "kryptoDogz",
      "outputs": [
        {
          "internalType": "string",
          "name": "",
          "type": "string"
        }
      ],
      "stateMutability": "view",
      "type": "function",
      "constant": true
    },
    {
      "inputs": [],
      "name": "name",
      "outputs": [
        {
          "internalType": "string",
          "name": "",
          "type": "string"
        }
      ],
      "stateMutability": "view",
      "type": "function",
      "constant": true
    },
    {
      "inputs": [
        {
          "internalType": "uint256",
          "name": "_tokenId",
          "type": "uint256"
        }
      ],
      "name": "ownerOf",
      "outputs": [
        {
          "internalType": "address",
          "name": "",
          "type": "address"
        }
      ],
      "stateMutability": "view",
      "type": "function",
      "constant": true
    },
    {
      "inputs": [
        {
          "internalType": "bytes4",
          "name": "interfaceID",
          "type": "bytes4"
        }
      ],
      "name": "supportsInterface",
      "outputs": [
        {
          "internalType": "bool",
          "name": "",
          "type": "bool"
        }
      ],
      "stateMutability": "view",
      "type": "function",
      "constant": true
    },
    {
      "inputs": [],
      "name": "symbol",
      "outputs": [
        {
          "internalType": "string",
          "name": "",
          "type": "string"
        }
      ],
      "stateMutability": "view",
      "type": "function",
      "constant": true
    },
    {
      "inputs": [
        {
          "internalType": "uint256",
          "name": "_index",
          "type": "uint256"
        }
      ],
      "name": "tokenByIndex",
      "outputs": [
        {
          "internalType": "uint256",
          "name": "",
          "type": "uint256"
        }
      ],
      "stateMutability": "view",
      "type": "function",
      "constant": true
    },
    {
      "inputs": [
        {
          "internalType": "address",
          "name": "_owner",
          "type": "address"
        },
        {
          "internalType": "uint256",
          "name": "_index",
          "type": "uint256"
        }
      ],
      "name": "tokenOfOwnerByIndex",
      "outputs": [
        {
          "internalType": "uint256",
          "name": "",
          "type": "uint256"
        }
      ],
      "stateMutability": "view",
      "type": "function",
      "constant": true
    },
    {
      "inputs": [],
      "name": "totalSupply",
      "outputs": [
        {
          "internalType": "uint256",
          "name": "",
          "type": "uint256"
        }
      ],
      "stateMutability": "view",
      "type": "function",
      "constant": true
    },
    {
      "inputs": [
        {
          "internalType": "address",
          "name": "_from",
          "type": "address"
        },
        {
          "internalType": "address",
          "name": "_to",
          "type": "address"
        },
        {
          "internalType": "uint256",
          "name": "_tokenId",
          "type": "uint256"
        }
      ],
      "name": "transferFrom",
      "outputs": [],
      "stateMutability": "nonpayable",
      "type": "function"
    },
    {
      "inputs": [
        {
          "internalType": "string",
          "name": "_kryptoDog",
          "type": "string"
        }
      ],
      "name": "mint",
      "outputs": [],
      "stateMutability": "nonpayable",
      "type": "function"
    }
  ],
  "bytecode": "0x60806040523480156200001157600080fd5b506040518060400160405280600981526020017f4b727970746f446f6700000000000000000000000000000000000000000000008152506040518060400160405280600581526020017f4b444f475a0000000000000000000000000000000000000000000000000000008152508181620000b17f01ffc9a7a5cef8baa21ed3c5c0d7e23accb804b619e9333b597f47a0d84076e26200026060201b60201c565b8160019081620000c29190620005b1565b508060029081620000d49190620005b1565b50620001287f13b182f4c0e5b2efbac0efe6cf6d756c8b89f4b79c5707a043ed9ea740574ee97f7feaf19471f34a12a7eaf32d5f3090aa2260ea8624dc8a138e74e0bf0f623076186200026060201b60201c565b5050620001e37f5af227006b8981efabb10af200ab71f08976cbce54b4c59ae5c97811d19a398c7f8c51fd5fcf1f456ec4eb0f32f68d83471264fe082fac12bcbfd2fa4be9eed6c77f22c82707ba960a14c7592ffb6b8cfaa073fed0048a84cc7fa41f6b5bd8e7f2e47f3a6eb71757dfc6e784c1459d26270140c2c147d95ca985c80026fc5301c3eca17f8a7e378434598edc36d108689a030cbc9d7d465de4f74c71bae1028eed6a881b181818186200026060201b60201c565b620002587f8230223f691b981717299fae9549350a0d894555723531f02108b1f522c1a7977f6da5e1284143cdd2d15038a59bde3be031250f00291d64494c12d967b3a4e0c37fc53637662700e6c65104059db8bba34439e0c32483ab7c34e3ccae52c739549518186200026060201b60201c565b50506200071b565b63ffffffff60e01b817bffffffffffffffffffffffffffffffffffffffffffffffffffffffff191603620002cb576040517f08c379a0000000000000000000000000000000000000000000000000000000008152600401620002c290620006f9565b60405180910390fd5b6001600080837bffffffffffffffffffffffffffffffffffffffffffffffffffffffff19167bffffffffffffffffffffffffffffffffffffffffffffffffffffffff1916815260200190815260200160002060006101000a81548160ff02191690831515021790555050565b600081519050919050565b7f4e487b7100000000000000000000000000000000000000000000000000000000600052604160045260246000fd5b7f4e487b7100000000000000000000000000000000000000000000000000000000600052602260045260246000fd5b60006002820490506001821680620003b957607f821691505b602082108103620003cf57620003ce62000371565b5b50919050565b60008190508160005260206000209050919050565b60006020601f8301049050919050565b600082821b905092915050565b600060088302620004397fffffffffffffffffffffffffffffffffffffffffffffffffffffffffffffffff82620003fa565b620004458683620003fa565b95508019841693508086168417925050509392505050565b6000819050919050565b6000819050919050565b6000620004926200048c62000486846200045d565b62000467565b6200045d565b9050919050565b6000819050919050565b620004ae8362000471565b620004c6620004bd8262000499565b84845462000407565b825550505050565b600090565b620004dd620004ce565b620004ea818484620004a3565b505050565b5b81811015620005125762000506600082620004d3565b600181019050620004f0565b5050565b601f82111562000561576200052b81620003d5565b6200053684620003ea565b8101602085101562000546578190505b6200055e6200055585620003ea565b830182620004ef565b50505b505050565b600082821c905092915050565b6000620005866000198460080262000566565b1980831691505092915050565b6000620005a1838362000573565b9150826002028217905092915050565b620005bc8262000337565b67ffffffffffffffff811115620005d857620005d762000342565b5b620005e48254620003a0565b620005f182828562000516565b600060209050601f83116001811462000629576000841562000614578287015190505b62000620858262000593565b86555062000690565b601f1984166200063986620003d5565b60005b8281101562000663578489015182556001820191506020850194506020810190506200063c565b868310156200068357848901516200067f601f89168262000573565b8355505b6001600288020188555050505b505050505050565b600082825260208201905092915050565b7f696e76616c696420696e74657266616365207265717565737473000000000000600082015250565b6000620006e1601a8362000698565b9150620006ee82620006a9565b602082019050919050565b600060208201905081810360008301526200071481620006d2565b9050919050565b612052806200072b6000396000f3fe608060405234801561001057600080fd5b50600436106100cf5760003560e01c80632f745c591161008c5780636352211e116100665780636352211e1461023857806370a082311461026857806395d89b4114610298578063d85d3d27146102b6576100cf565b80632f745c59146101a85780634f6ccce7146101d85780635ecad60514610208576100cf565b806301ffc9a7146100d457806306fdde0314610104578063081812fc14610122578063095ea7b31461015257806318160ddd1461016e57806323b872dd1461018c575b600080fd5b6100ee60048036038101906100e99190611287565b6102d2565b6040516100fb91906112cf565b60405180910390f35b61010c610339565b604051610119919061137a565b60405180910390f35b61013c600480360381019061013791906113d2565b6103cb565b6040516101499190611440565b60405180910390f35b61016c60048036038101906101679190611487565b610450565b005b6101766105eb565b60405161018391906114d6565b60405180910390f35b6101a660048036038101906101a191906114f1565b6105f8565b005b6101c260048036038101906101bd9190611487565b61061b565b6040516101cf91906114d6565b60405180910390f35b6101f260048036038101906101ed91906113d2565b6106cb565b6040516101ff91906114d6565b60405180910390f35b610222600480360381019061021d91906113d2565b61073c565b60405161022f919061137a565b60405180910390f35b610252600480360381019061024d91906113d2565b6107e8565b60405161025f9190611440565b60405180910390f35b610282600480360381019061027d9190611544565b6108c6565b60405161028f91906114d6565b60405180910390f35b6102a0610984565b6040516102ad919061137a565b60405180910390f35b6102d060048036038101906102cb91906116a6565b610a16565b005b6000806000837bffffffffffffffffffffffffffffffffffffffffffffffffffffffff19167bffffffffffffffffffffffffffffffffffffffffffffffffffffffff1916815260200190815260200160002060009054906101000a900460ff169050919050565b6060600180546103489061171e565b80601f01602080910402602001604051908101604052809291908181526020018280546103749061171e565b80156103c15780601f10610396576101008083540402835291602001916103c1565b820191906000526020600020905b8154815290600101906020018083116103a457829003601f168201915b5050505050905090565b60006103d682610b18565b610415576040517f08c379a000000000000000000000000000000000000000000000000000000000815260040161040c9061179b565b60405180910390fd5b6005600083815260200190815260200160002060009054906101000a900473ffffffffffffffffffffffffffffffffffffffff169050919050565b600061045b826107e8565b90508073ffffffffffffffffffffffffffffffffffffffff168373ffffffffffffffffffffffffffffffffffffffff16036104cb576040517f08c379a00000000000000000000000000000000000000000000000000000000081526004016104c290611807565b60405180910390fd5b8073ffffffffffffffffffffffffffffffffffffffff163373ffffffffffffffffffffffffffffffffffffffff1614610539576040517f08c379a000000000000000000000000000000000000000000000000000000000815260040161053090611873565b60405180910390fd5b826005600084815260200190815260200160002060006101000a81548173ffffffffffffffffffffffffffffffffffffffff021916908373ffffffffffffffffffffffffffffffffffffffff160217905550818373ffffffffffffffffffffffffffffffffffffffff168273ffffffffffffffffffffffffffffffffffffffff167f8c5be1e5ebec7d5bd14f71427d1e84f3dd0314c0f7b2291e5b200ac8c7c3b92560405160405180910390a4505050565b6000600680549050905090565b6106023382610b8a565b61060b57600080fd5b610616838383610c57565b505050565b6000610626836108c6565b8210610667576040517f08c379a000000000000000000000000000000000000000000000000000000000815260040161065e906118df565b60405180910390fd5b600860008473ffffffffffffffffffffffffffffffffffffffff1673ffffffffffffffffffffffffffffffffffffffff16815260200190815260200160002082815481106106b8576106b76118ff565b5b9060005260206000200154905092915050565b60006106d56105eb565b8210610716576040517f08c379a000000000000000000000000000000000000000000000000000000000815260040161070d9061197a565b60405180910390fd5b6006828154811061072a576107296118ff565b5b90600052602060002001549050919050565b600a818154811061074c57600080fd5b9060005260206000200160009150905080546107679061171e565b80601f01602080910402602001604051908101604052809291908181526020018280546107939061171e565b80156107e05780601f106107b5576101008083540402835291602001916107e0565b820191906000526020600020905b8154815290600101906020018083116107c357829003601f168201915b505050505081565b60008073ffffffffffffffffffffffffffffffffffffffff166003600084815260200190815260200160002060009054906101000a900473ffffffffffffffffffffffffffffffffffffffff1673ffffffffffffffffffffffffffffffffffffffff160361088b576040517f08c379a000000000000000000000000000000000000000000000000000000000815260040161088290611a0c565b60405180910390fd5b6003600083815260200190815260200160002060009054906101000a900473ffffffffffffffffffffffffffffffffffffffff169050919050565b60008073ffffffffffffffffffffffffffffffffffffffff168273ffffffffffffffffffffffffffffffffffffffff1603610936576040517f08c379a000000000000000000000000000000000000000000000000000000000815260040161092d90611a0c565b60405180910390fd5b61097d600460008473ffffffffffffffffffffffffffffffffffffffff1673ffffffffffffffffffffffffffffffffffffffff168152602001908152602001600020610e7c565b9050919050565b6060600280546109939061171e565b80601f01602080910402602001604051908101604052809291908181526020018280546109bf9061171e565b8015610a0c5780601f106109e157610100808354040283529160200191610a0c565b820191906000526020600020905b8154815290600101906020018083116109ef57829003601f168201915b5050505050905090565b60001515600b82604051610a2a9190611a68565b908152602001604051809103902060009054906101000a900460ff16151514610a88576040517f08c379a0000000000000000000000000000000000000000000000000000000008152600401610a7f90611acb565b60405180910390fd5b600a81908060018154018082558091505060019003906000526020600020016000909190919091509081610abc9190611c97565b5060006001600a80549050610ad19190611d98565b9050610add3382610e8a565b6001600b83604051610aef9190611a68565b908152602001604051809103902060006101000a81548160ff0219169083151502179055505050565b6000806003600084815260200190815260200160002060009054906101000a900473ffffffffffffffffffffffffffffffffffffffff169050600073ffffffffffffffffffffffffffffffffffffffff168173ffffffffffffffffffffffffffffffffffffffff161415915050919050565b6000610b9582610b18565b610bd4576040517f08c379a0000000000000000000000000000000000000000000000000000000008152600401610bcb9061179b565b60405180910390fd5b6000610bdf836107e8565b90508073ffffffffffffffffffffffffffffffffffffffff168473ffffffffffffffffffffffffffffffffffffffff161480610c4e57508373ffffffffffffffffffffffffffffffffffffffff16610c36846103cb565b73ffffffffffffffffffffffffffffffffffffffff16145b91505092915050565b8273ffffffffffffffffffffffffffffffffffffffff16610c77826107e8565b73ffffffffffffffffffffffffffffffffffffffff1614610ccd576040517f08c379a0000000000000000000000000000000000000000000000000000000008152600401610cc490611e18565b60405180910390fd5b600073ffffffffffffffffffffffffffffffffffffffff168273ffffffffffffffffffffffffffffffffffffffff1603610d3c576040517f08c379a0000000000000000000000000000000000000000000000000000000008152600401610d3390611e84565b60405180910390fd5b610d83600460008573ffffffffffffffffffffffffffffffffffffffff1673ffffffffffffffffffffffffffffffffffffffff168152602001908152602001600020610eab565b610dca600460008473ffffffffffffffffffffffffffffffffffffffff1673ffffffffffffffffffffffffffffffffffffffff168152602001908152602001600020610ece565b816003600083815260200190815260200160002060006101000a81548173ffffffffffffffffffffffffffffffffffffffff021916908373ffffffffffffffffffffffffffffffffffffffff160217905550808273ffffffffffffffffffffffffffffffffffffffff168473ffffffffffffffffffffffffffffffffffffffff167fddf252ad1be2c89b69c2b068fc378daa952ba7f163c4a11628f55a4df523b3ef60405160405180910390a4505050565b600081600001549050919050565b610e948282610eed565b610e9d816110a4565b610ea782826110f9565b5050565b610ec3600182600001546111bd90919063ffffffff16565b816000018190555050565b6001816000016000828254610ee39190611ea4565b9250508190555050565b600073ffffffffffffffffffffffffffffffffffffffff168273ffffffffffffffffffffffffffffffffffffffff1603610f5c576040517f08c379a0000000000000000000000000000000000000000000000000000000008152600401610f5390611f24565b60405180910390fd5b60001515610f6982610b18565b151514610fab576040517f08c379a0000000000000000000000000000000000000000000000000000000008152600401610fa290611f90565b60405180910390fd5b816003600083815260200190815260200160002060006101000a81548173ffffffffffffffffffffffffffffffffffffffff021916908373ffffffffffffffffffffffffffffffffffffffff160217905550611044600460008473ffffffffffffffffffffffffffffffffffffffff1673ffffffffffffffffffffffffffffffffffffffff168152602001908152602001600020610ece565b808273ffffffffffffffffffffffffffffffffffffffff16600073ffffffffffffffffffffffffffffffffffffffff167fddf252ad1be2c89b69c2b068fc378daa952ba7f163c4a11628f55a4df523b3ef60405160405180910390a45050565b600681908060018154018082558091505060019003906000526020600020016000909190919091505560016006805490506110df9190611d98565b600760008381526020019081526020016000208190555050565b600860008373ffffffffffffffffffffffffffffffffffffffff1673ffffffffffffffffffffffffffffffffffffffff168152602001908152602001600020805490506009600083815260200190815260200160002081905550600860008373ffffffffffffffffffffffffffffffffffffffff1673ffffffffffffffffffffffffffffffffffffffff1681526020019081526020016000208190806001815401808255809150506001900390600052602060002001600090919091909150555050565b60008082846111cc9190611d98565b905083811015611211576040517f08c379a000000000000000000000000000000000000000000000000000000000815260040161120890611ffc565b60405180910390fd5b8091505092915050565b6000604051905090565b600080fd5b600080fd5b60007fffffffff0000000000000000000000000000000000000000000000000000000082169050919050565b6112648161122f565b811461126f57600080fd5b50565b6000813590506112818161125b565b92915050565b60006020828403121561129d5761129c611225565b5b60006112ab84828501611272565b91505092915050565b60008115159050919050565b6112c9816112b4565b82525050565b60006020820190506112e460008301846112c0565b92915050565b600081519050919050565b600082825260208201905092915050565b60005b83811015611324578082015181840152602081019050611309565b60008484015250505050565b6000601f19601f8301169050919050565b600061134c826112ea565b61135681856112f5565b9350611366818560208601611306565b61136f81611330565b840191505092915050565b600060208201905081810360008301526113948184611341565b905092915050565b6000819050919050565b6113af8161139c565b81146113ba57600080fd5b50565b6000813590506113cc816113a6565b92915050565b6000602082840312156113e8576113e7611225565b5b60006113f6848285016113bd565b91505092915050565b600073ffffffffffffffffffffffffffffffffffffffff82169050919050565b600061142a826113ff565b9050919050565b61143a8161141f565b82525050565b60006020820190506114556000830184611431565b92915050565b6114648161141f565b811461146f57600080fd5b50565b6000813590506114818161145b565b92915050565b6000806040838503121561149e5761149d611225565b5b60006114ac85828601611472565b92505060206114bd858286016113bd565b9150509250929050565b6114d08161139c565b82525050565b60006020820190506114eb60008301846114c7565b92915050565b60008060006060848603121561150a57611509611225565b5b600061151886828701611472565b935050602061152986828701611472565b925050604061153a868287016113bd565b9150509250925092565b60006020828403121561155a57611559611225565b5b600061156884828501611472565b91505092915050565b600080fd5b600080fd5b7f4e487b7100000000000000000000000000000000000000000000000000000000600052604160045260246000fd5b6115b382611330565b810181811067ffffffffffffffff821117156115d2576115d161157b565b5b80604052505050565b60006115e561121b565b90506115f182826115aa565b919050565b600067ffffffffffffffff8211156116115761161061157b565b5b61161a82611330565b9050602081019050919050565b82818337600083830152505050565b6000611649611644846115f6565b6115db565b90508281526020810184848401111561166557611664611576565b5b611670848285611627565b509392505050565b600082601f83011261168d5761168c611571565b5b813561169d848260208601611636565b91505092915050565b6000602082840312156116bc576116bb611225565b5b600082013567ffffffffffffffff8111156116da576116d961122a565b5b6116e684828501611678565b91505092915050565b7f4e487b7100000000000000000000000000000000000000000000000000000000600052602260045260246000fd5b6000600282049050600182168061173657607f821691505b602082108103611749576117486116ef565b5b50919050565b7f746f6b656e20646f6573206e6f74206578697374000000000000000000000000600082015250565b60006117856014836112f5565b91506117908261174f565b602082019050919050565b600060208201905081810360008301526117b481611778565b9050919050565b7f6f776e65722063616e206e6f742073656e6420746f2073656c66000000000000600082015250565b60006117f1601a836112f5565b91506117fc826117bb565b602082019050919050565b60006020820190508181036000830152611820816117e4565b9050919050565b7f63757272656e742063616c6c6572206d757374206265206f776e204e46540000600082015250565b600061185d601e836112f5565b915061186882611827565b602082019050919050565b6000602082019050818103600083015261188c81611850565b9050919050565b7f6f776e657220696e646578206973206f7574206f6620626f756e64732e000000600082015250565b60006118c9601d836112f5565b91506118d482611893565b602082019050919050565b600060208201905081810360008301526118f8816118bc565b9050919050565b7f4e487b7100000000000000000000000000000000000000000000000000000000600052603260045260246000fd5b7f676c6f62616c20696e646578206973206f7574206f6620626f756e64732e0000600082015250565b6000611964601e836112f5565b915061196f8261192e565b602082019050919050565b6000602082019050818103600083015261199381611957565b9050919050565b7f455243373231203a206f776e657220717565727920666f72206e6f6e2d65786960008201527f7374656e7420746f6b656e000000000000000000000000000000000000000000602082015250565b60006119f6602b836112f5565b9150611a018261199a565b604082019050919050565b60006020820190508181036000830152611a25816119e9565b9050919050565b600081905092915050565b6000611a42826112ea565b611a4c8185611a2c565b9350611a5c818560208601611306565b80840191505092915050565b6000611a748284611a37565b915081905092915050565b7f74686973204e465420697320616c7265616479206d696e746564000000000000600082015250565b6000611ab5601a836112f5565b9150611ac082611a7f565b602082019050919050565b60006020820190508181036000830152611ae481611aa8565b9050919050565b60008190508160005260206000209050919050565b60006020601f8301049050919050565b600082821b905092915050565b600060088302611b4d7fffffffffffffffffffffffffffffffffffffffffffffffffffffffffffffffff82611b10565b611b578683611b10565b95508019841693508086168417925050509392505050565b6000819050919050565b6000611b94611b8f611b8a8461139c565b611b6f565b61139c565b9050919050565b6000819050919050565b611bae83611b79565b611bc2611bba82611b9b565b848454611b1d565b825550505050565b600090565b611bd7611bca565b611be2818484611ba5565b505050565b5b81811015611c0657611bfb600082611bcf565b600181019050611be8565b5050565b601f821115611c4b57611c1c81611aeb565b611c2584611b00565b81016020851015611c34578190505b611c48611c4085611b00565b830182611be7565b50505b505050565b600082821c905092915050565b6000611c6e60001984600802611c50565b1980831691505092915050565b6000611c878383611c5d565b9150826002028217905092915050565b611ca0826112ea565b67ffffffffffffffff811115611cb957611cb861157b565b5b611cc3825461171e565b611cce828285611c0a565b600060209050601f831160018114611d015760008415611cef578287015190505b611cf98582611c7b565b865550611d61565b601f198416611d0f86611aeb565b60005b82811015611d3757848901518255600182019150602085019450602081019050611d12565b86831015611d545784890151611d50601f891682611c5d565b8355505b6001600288020188555050505b505050505050565b7f4e487b7100000000000000000000000000000000000000000000000000000000600052601160045260246000fd5b6000611da38261139c565b9150611dae8361139c565b9250828203905081811115611dc657611dc5611d69565b5b92915050565b7f455243373231203a204e6f7420746865206f776e657200000000000000000000600082015250565b6000611e026016836112f5565b9150611e0d82611dcc565b602082019050919050565b60006020820190508181036000830152611e3181611df5565b9050919050565b7f455243373231203a20696e76616c696420616464726573730000000000000000600082015250565b6000611e6e6018836112f5565b9150611e7982611e38565b602082019050919050565b60006020820190508181036000830152611e9d81611e61565b9050919050565b6000611eaf8261139c565b9150611eba8361139c565b9250828201905080821115611ed257611ed1611d69565b5b92915050565b7f455243373231203a20616464726573732063616e206e6f742062652030000000600082015250565b6000611f0e601d836112f5565b9150611f1982611ed8565b602082019050919050565b60006020820190508181036000830152611f3d81611f01565b9050919050565b7f455243373231203a20616c7265616479206d696e746564000000000000000000600082015250565b6000611f7a6017836112f5565b9150611f8582611f44565b602082019050919050565b60006020820190508181036000830152611fa981611f6d565b9050919050565b7f535542204f564552464c4f572045524f52520000000000000000000000000000600082015250565b6000611fe66012836112f5565b9150611ff182611fb0565b602082019050919050565b6000602082019050818103600083015261201581611fd9565b905091905056fea264697066735822122040146ddbc5550627cebbb4b0610567687dc569a90c54850dee292dab812b4c3a64736f6c63430008120033",
  "immutableReferences": {},
  "source": "// SPDX-License-Identifier: MIT\r\npragma solidity >=0.4.0 < 0.9.0;\r\n\r\nimport './ERC721Connector.sol';\r\n\r\n// KryptoDogz & Migrations -> truffle-configs.js (setting networks) & migration.js (deploy the contracts) -> deploy on blockchain(test network ganache)\r\n\r\n// kryotpDog values => ERC721Connector arguments\r\ncontract KryptoDog is ERC721Connector {\r\n\r\n    string [] public kryptoDogz;\r\n    // add NFT -> make tokenId with index + msg.sender -> ERC721 _mint -> mapping msg.sender : tokenId\r\n\r\n    mapping(string => bool) _kryptoDogzExists;\r\n\r\n    function mint(string memory _kryptoDog) public {\r\n        \r\n        require(_kryptoDogzExists[_kryptoDog] == false, \"this NFT is already minted\");\r\n\r\n        kryptoDogz.push(_kryptoDog);\r\n        uint _id =  kryptoDogz.length -1;\r\n        /* version over 0.6 push method can not get length, only reference value.\r\n        thus push first and then get length. (-1 for indexing) */\r\n        \r\n        _mint(msg.sender, _id);\r\n\r\n        _kryptoDogzExists[_kryptoDog] = true;\r\n        // track minting history\r\n    }\r\n\r\n    constructor() ERC721Connector('KryptoDog', 'KDOGZ') {}\r\n}\r\n\r\n/* after migration, we can mint our image src truffle console -> kryptoDog.mint('ex) https... / ')\r\nthen emit msg.sender as from, kryptoDog contract address as to and index\r\n */",
  "sourcePath": "C:\\Users\\hyean\\Desktop\\NFT-market-web\\src\\contracts\\KryptoDogz.sol",
  "compiler": {
    "name": "solc",
    "version": "0.8.18+commit.87f61d96.Emscripten.clang"
  },
  "schemaVersion": "3.4.11",
  "updatedAt": "2023-02-21T08:09:20.463Z",
  "networkType": "ethereum",
  "devdoc": {
    "kind": "dev",
    "methods": {
      "supportsInterface(bytes4)": {
        "details": "Interface identification is specified in ERC-165. This function  uses less than 30,000 gas.",
        "params": {
          "interfaceID": "The interface identifier, as specified in ERC-165"
        },
        "returns": {
          "_0": "`true` if the contract implements `interfaceID` and  `interfaceID` is not 0xffffffff, `false` otherwise"
        }
      }
    },
    "version": 1
  },
  "userdoc": {
    "kind": "user",
    "methods": {
      "supportsInterface(bytes4)": {
        "notice": "Query if a contract implements an interface"
      }
    },
    "version": 1
  }
}